{
  "transactions": [
    {
      "hash": "0xec8657b92f71e76484975faf0de2f32a93ff425c72aa7221f39639eb6790d0e4",
      "transactionType": "CALL",
      "contractName": null,
      "contractAddress": "0x3451a291eb771ff2a7b5588eac65f8e14cc6f3fc",
      "function": "transferFrom(address,address,uint256)",
      "arguments": [
        "0x1804c8AB1F12E6bbf3894d4083f33e07309d1f38",
        "0x0000000000000000000000000000000000000001",
        "0"
      ],
      "transaction": {
        "from": "0xd54b58f084bfdec0458254832cf4bbc39a168c99",
        "to": "0x3451a291eb771ff2a7b5588eac65f8e14cc6f3fc",
        "gas": "0xb51b",
        "value": "0x0",
        "input": "0x23b872dd0000000000000000000000001804c8ab1f12e6bbf3894d4083f33e07309d1f3800000000000000000000000000000000000000000000000000000000000000010000000000000000000000000000000000000000000000000000000000000000",
        "nonce": "0x135",
        "chainId": "0xaa36a7"
      },
      "additionalContracts": [],
      "isFixedGasLimit": false
    }
  ],
  "receipts": [
    {
      "status": "0x1",
      "cumulativeGasUsed": "0x13ae80a",
      "logs": [
        {
          "address": "0x3451a291eb771ff2a7b5588eac65f8e14cc6f3fc",
          "topics": [
            "0x8c5be1e5ebec7d5bd14f71427d1e84f3dd0314c0f7b2291e5b200ac8c7c3b925",
            "0x0000000000000000000000001804c8ab1f12e6bbf3894d4083f33e07309d1f38",
            "0x000000000000000000000000d54b58f084bfdec0458254832cf4bbc39a168c99"
          ],
          "data": "0x0000000000000000000000000000000000000000000000000000000000000000",
          "blockHash": "0x3aeddbc84f671cece01bffaa0cd5dfe80b6f4f9393780a956ed8f9da4043bc9b",
          "blockNumber": "0x803f45",
          "transactionHash": "0xec8657b92f71e76484975faf0de2f32a93ff425c72aa7221f39639eb6790d0e4",
          "transactionIndex": "0x79",
          "logIndex": "0x14a",
          "removed": false
        },
        {
          "address": "0x3451a291eb771ff2a7b5588eac65f8e14cc6f3fc",
          "topics": [
            "0xddf252ad1be2c89b69c2b068fc378daa952ba7f163c4a11628f55a4df523b3ef",
            "0x0000000000000000000000001804c8ab1f12e6bbf3894d4083f33e07309d1f38",
            "0x0000000000000000000000000000000000000000000000000000000000000001"
          ],
          "data": "0x0000000000000000000000000000000000000000000000000000000000000000",
          "blockHash": "0x3aeddbc84f671cece01bffaa0cd5dfe80b6f4f9393780a956ed8f9da4043bc9b",
          "blockNumber": "0x803f45",
          "transactionHash": "0xec8657b92f71e76484975faf0de2f32a93ff425c72aa7221f39639eb6790d0e4",
          "transactionIndex": "0x79",
          "logIndex": "0x14b",
          "removed": false
        }
      ],
      "logsBloom": "0x00000000000000000000000000000000000000000000000000000000000000000000000000000000000000000000000020000000000080000000000000240000000000000000000000000008000000000000000000040000000000000000000000000000008000000001000000000000000000000000000000000010000000000000000000000000000004000000000000000000000000000000000000000000020000000000000000000000000000000000002000000000000000000000000000040002000004000000000000000000000000000000000000000000000040000010000000000000000000000020000000000000000000000000000000000000",
      "type": "0x2",
      "transactionHash": "0xec8657b92f71e76484975faf0de2f32a93ff425c72aa7221f39639eb6790d0e4",
      "transactionIndex": "0x79",
      "blockHash": "0x3aeddbc84f671cece01bffaa0cd5dfe80b6f4f9393780a956ed8f9da4043bc9b",
      "blockNumber": "0x803f45",
      "gasUsed": "0x831f",
      "effectiveGasPrice": "0x21992bc9",
      "from": "0xd54b58f084bfdec0458254832cf4bbc39a168c99",
      "to": "0x3451a291eb771ff2a7b5588eac65f8e14cc6f3fc",
      "contractAddress": null
    }
  ],
  "libraries": [],
  "pending": [],
  "returns": {},
  "timestamp": 1748193913,
  "chain": 11155111,
  "commit": "34ed48d"
}