{
  "transactions": [
    {
      "hash": "0x8d4b4dc70654b8cddbb5c26a51b3efa98af3360fe20b1ba929fce9041bb93ae3",
      "transactionType": "CALL",
      "contractName": null,
      "contractAddress": "0x3451a291eb771ff2a7b5588eac65f8e14cc6f3fc",
      "function": "approve(address,uint256)",
      "arguments": [
        "0xD54b58f084BfDEc0458254832CF4bBc39a168c99",
        "1000000000000000000000000"
      ],
      "transaction": {
        "from": "0xd54b58f084bfdec0458254832cf4bbc39a168c99",
        "to": "0x3451a291eb771ff2a7b5588eac65f8e14cc6f3fc",
        "gas": "0xf9c8",
        "value": "0x0",
        "input": "0x095ea7b3000000000000000000000000d54b58f084bfdec0458254832cf4bbc39a168c9900000000000000000000000000000000000000000000d3c21bcecceda1000000",
        "nonce": "0x138",
        "chainId": "0xaa36a7"
      },
      "additionalContracts": [],
      "isFixedGasLimit": false
    },
    {
      "hash": "0x3e9b9b74ea50f7d4c19d65d413bfb5406be5c1ba291a10b27514c3f4b4228208",
      "transactionType": "CALL",
      "contractName": null,
      "contractAddress": "0x3451a291eb771ff2a7b5588eac65f8e14cc6f3fc",
      "function": "transferFrom(address,address,uint256)",
      "arguments": [
        "0xD54b58f084BfDEc0458254832CF4bBc39a168c99",
        "0x0000000000000000000000000000000000000001",
        "1000000000000000000000000"
      ],
      "transaction": {
        "from": "0xd54b58f084bfdec0458254832cf4bbc39a168c99",
        "to": "0x3451a291eb771ff2a7b5588eac65f8e14cc6f3fc",
        "gas": "0x10b59",
        "value": "0x0",
        "input": "0x23b872dd000000000000000000000000d54b58f084bfdec0458254832cf4bbc39a168c99000000000000000000000000000000000000000000000000000000000000000100000000000000000000000000000000000000000000d3c21bcecceda1000000",
        "nonce": "0x139",
        "chainId": "0xaa36a7"
      },
      "additionalContracts": [],
      "isFixedGasLimit": false
    }
  ],
  "receipts": [
    {
      "status": "0x1",
      "cumulativeGasUsed": "0x12bbc0e",
      "logs": [
        {
          "address": "0x3451a291eb771ff2a7b5588eac65f8e14cc6f3fc",
          "topics": [
            "0x8c5be1e5ebec7d5bd14f71427d1e84f3dd0314c0f7b2291e5b200ac8c7c3b925",
            "0x000000000000000000000000d54b58f084bfdec0458254832cf4bbc39a168c99",
            "0x000000000000000000000000d54b58f084bfdec0458254832cf4bbc39a168c99"
          ],
          "data": "0x00000000000000000000000000000000000000000000d3c21bcecceda1000000",
          "blockHash": "0x3f0efcf041af92d1c767fe81e942ccf1fa58a8d418f9f69743484b1acb721f92",
          "blockNumber": "0x803f95",
          "transactionHash": "0x8d4b4dc70654b8cddbb5c26a51b3efa98af3360fe20b1ba929fce9041bb93ae3",
          "transactionIndex": "0xcb",
          "logIndex": "0x1bd",
          "removed": false
        }
      ],
      "logsBloom": "0x00000000000000000000000000000000000000000000000000000000000000000000000000000000000000000000000020000000000080000000000000200000000000000000000000000000000000000000000000000000000000000000000000000000008000000000000000000000000000000000000000000000000000000000000000000000000000000000000000000000000000000000000000000000020000000000000000000000000000000000002000000000000000000000000000040000000000000000000000000000000000000000000000000000000000000010000000000000000000000020000000000000000000000000000000000000",
      "type": "0x2",
      "transactionHash": "0x8d4b4dc70654b8cddbb5c26a51b3efa98af3360fe20b1ba929fce9041bb93ae3",
      "transactionIndex": "0xcb",
      "blockHash": "0x3f0efcf041af92d1c767fe81e942ccf1fa58a8d418f9f69743484b1acb721f92",
      "blockNumber": "0x803f95",
      "gasUsed": "0xb4d7",
      "effectiveGasPrice": "0x4ff8176",
      "from": "0xd54b58f084bfdec0458254832cf4bbc39a168c99",
      "to": "0x3451a291eb771ff2a7b5588eac65f8e14cc6f3fc",
      "contractAddress": null
    },
    {
      "status": "0x1",
      "cumulativeGasUsed": "0x12c7d9d",
      "logs": [
        {
          "address": "0x3451a291eb771ff2a7b5588eac65f8e14cc6f3fc",
          "topics": [
            "0x8c5be1e5ebec7d5bd14f71427d1e84f3dd0314c0f7b2291e5b200ac8c7c3b925",
            "0x000000000000000000000000d54b58f084bfdec0458254832cf4bbc39a168c99",
            "0x000000000000000000000000d54b58f084bfdec0458254832cf4bbc39a168c99"
          ],
          "data": "0x0000000000000000000000000000000000000000000000000000000000000000",
          "blockHash": "0x3f0efcf041af92d1c767fe81e942ccf1fa58a8d418f9f69743484b1acb721f92",
          "blockNumber": "0x803f95",
          "transactionHash": "0x3e9b9b74ea50f7d4c19d65d413bfb5406be5c1ba291a10b27514c3f4b4228208",
          "transactionIndex": "0xcc",
          "logIndex": "0x1be",
          "removed": false
        },
        {
          "address": "0x3451a291eb771ff2a7b5588eac65f8e14cc6f3fc",
          "topics": [
            "0xddf252ad1be2c89b69c2b068fc378daa952ba7f163c4a11628f55a4df523b3ef",
            "0x000000000000000000000000d54b58f084bfdec0458254832cf4bbc39a168c99",
            "0x0000000000000000000000000000000000000000000000000000000000000001"
          ],
          "data": "0x00000000000000000000000000000000000000000000d3c21bcecceda1000000",
          "blockHash": "0x3f0efcf041af92d1c767fe81e942ccf1fa58a8d418f9f69743484b1acb721f92",
          "blockNumber": "0x803f95",
          "transactionHash": "0x3e9b9b74ea50f7d4c19d65d413bfb5406be5c1ba291a10b27514c3f4b4228208",
          "transactionIndex": "0xcc",
          "logIndex": "0x1bf",
          "removed": false
        }
      ],
      "logsBloom": "0x00000000000000000000000000000000000000000000000000000000000000000000000000000000000000000000000020000000000080000000000000240000000000000000000000000008000000000000000000040000000000000000000000000000008000000000000000000000000000000000000000000010000000000000000000000000000000000000000000000000000000000000000000000000020000000000000000000000000000000000002000000000000000000000000000040002000000000000000000000000000000000000000000000000000040000010000000000000000000000020000000000000000000000000000000000000",
      "type": "0x2",
      "transactionHash": "0x3e9b9b74ea50f7d4c19d65d413bfb5406be5c1ba291a10b27514c3f4b4228208",
      "transactionIndex": "0xcc",
      "blockHash": "0x3f0efcf041af92d1c767fe81e942ccf1fa58a8d418f9f69743484b1acb721f92",
      "blockNumber": "0x803f95",
      "gasUsed": "0xc18f",
      "effectiveGasPrice": "0x4ff8176",
      "from": "0xd54b58f084bfdec0458254832cf4bbc39a168c99",
      "to": "0x3451a291eb771ff2a7b5588eac65f8e14cc6f3fc",
      "contractAddress": null
    }
  ],
  "libraries": [],
  "pending": [],
  "returns": {},
  "timestamp": 1748194884,
  "chain": 11155111,
  "commit": "34ed48d"
}