{
  "transactions": [
    {
      "hash": "0x49171cc57a96c7f9e7378fe35af447acf1f396de628cc7dbca96e8d6a95ee01b",
      "transactionType": "CALL",
      "contractName": null,
      "contractAddress": "0x3451a291eb771ff2a7b5588eac65f8e14cc6f3fc",
      "function": "transferFrom(address,address,uint256)",
      "arguments": [
        "0x1804c8AB1F12E6bbf3894d4083f33e07309d1f38",
        "0x9f7cF1d1F558E57ef88a59ac3D47214eF25B6A06",
        "0"
      ],
      "transaction": {
        "from": "0xd54b58f084bfdec0458254832cf4bbc39a168c99",
        "to": "0x3451a291eb771ff2a7b5588eac65f8e14cc6f3fc",
        "gas": "0xc110",
        "value": "0x0",
        "input": "0x23b872dd0000000000000000000000001804c8ab1f12e6bbf3894d4083f33e07309d1f380000000000000000000000009f7cf1d1f558e57ef88a59ac3d47214ef25b6a060000000000000000000000000000000000000000000000000000000000000000",
        "nonce": "0x133",
        "chainId": "0xaa36a7"
      },
      "additionalContracts": [],
      "isFixedGasLimit": false
    }
  ],
  "receipts": [
    {
      "status": "0x1",
      "cumulativeGasUsed": "0x1d9df57",
      "logs": [
        {
          "address": "0x3451a291eb771ff2a7b5588eac65f8e14cc6f3fc",
          "topics": [
            "0x8c5be1e5ebec7d5bd14f71427d1e84f3dd0314c0f7b2291e5b200ac8c7c3b925",
            "0x0000000000000000000000001804c8ab1f12e6bbf3894d4083f33e07309d1f38",
            "0x000000000000000000000000d54b58f084bfdec0458254832cf4bbc39a168c99"
          ],
          "data": "0x0000000000000000000000000000000000000000000000000000000000000000",
          "blockHash": "0x1ecbc683f6613a5356341aadaf7eb187195894d9185c7369049e49375091003e",
          "blockNumber": "0x803f2d",
          "transactionHash": "0x49171cc57a96c7f9e7378fe35af447acf1f396de628cc7dbca96e8d6a95ee01b",
          "transactionIndex": "0xc2",
          "logIndex": "0x1ce",
          "removed": false
        },
        {
          "address": "0x3451a291eb771ff2a7b5588eac65f8e14cc6f3fc",
          "topics": [
            "0xddf252ad1be2c89b69c2b068fc378daa952ba7f163c4a11628f55a4df523b3ef",
            "0x0000000000000000000000001804c8ab1f12e6bbf3894d4083f33e07309d1f38",
            "0x0000000000000000000000009f7cf1d1f558e57ef88a59ac3d47214ef25b6a06"
          ],
          "data": "0x0000000000000000000000000000000000000000000000000000000000000000",
          "blockHash": "0x1ecbc683f6613a5356341aadaf7eb187195894d9185c7369049e49375091003e",
          "blockNumber": "0x803f2d",
          "transactionHash": "0x49171cc57a96c7f9e7378fe35af447acf1f396de628cc7dbca96e8d6a95ee01b",
          "transactionIndex": "0xc2",
          "logIndex": "0x1cf",
          "removed": false
        }
      ],
      "logsBloom": "0x00000000000000000000000000000000000000000000000000000000000000000000000000000000000000000000000020000000000080000000000000200000000040000000000000000008000000000000000000000000000000000000000000000000008000000001000000000000000000000000000000000010000000000000000000000000000004800000000000000000000000000000000000000000020000004000000000000000000000000000002000000000000000000000000000040002000004000000000000000000000000000000000000000000000000000010000000000000000000000020000000000000000000000000000000000000",
      "type": "0x2",
      "transactionHash": "0x49171cc57a96c7f9e7378fe35af447acf1f396de628cc7dbca96e8d6a95ee01b",
      "transactionIndex": "0xc2",
      "blockHash": "0x1ecbc683f6613a5356341aadaf7eb187195894d9185c7369049e49375091003e",
      "blockNumber": "0x803f2d",
      "gasUsed": "0x8403",
      "effectiveGasPrice": "0x12d4ffe2",
      "from": "0xd54b58f084bfdec0458254832cf4bbc39a168c99",
      "to": "0x3451a291eb771ff2a7b5588eac65f8e14cc6f3fc",
      "contractAddress": null
    }
  ],
  "libraries": [],
  "pending": [],
  "returns": {},
  "timestamp": 1748193600,
  "chain": 11155111,
  "commit": "34ed48d"
}