{
  "transactions": [
    {
      "hash": "0x57a610c8d6ad6635ee0c79c6912855471ab809d79d1bb7659a1094189fced529",
      "transactionType": "CALL",
      "contractName": null,
      "contractAddress": "0x0db66780a85a1eac2d60d19814dbd4f52a951458",
      "function": "makeContact()",
      "arguments": [],
      "transaction": {
        "from": "0xd54b58f084bfdec0458254832cf4bbc39a168c99",
        "to": "0x0db66780a85a1eac2d60d19814dbd4f52a951458",
        "gas": "0x8dca",
        "value": "0x0",
        "input": "0x328b52cb",
        "nonce": "0x187",
        "chainId": "0xaa36a7"
      },
      "additionalContracts": [],
      "isFixedGasLimit": false
    },
    {
      "hash": "0x74aec86582a4cc744e1f23e0a822b3d8adffbec8d8f4440d025cb52501c5f3dc",
      "transactionType": "CALL",
      "contractName": null,
      "contractAddress": "0x0db66780a85a1eac2d60d19814dbd4f52a951458",
      "function": "retract()",
      "arguments": [],
      "transaction": {
        "from": "0xd54b58f084bfdec0458254832cf4bbc39a168c99",
        "to": "0x0db66780a85a1eac2d60d19814dbd4f52a951458",
        "gas": "0x10504",
        "value": "0x0",
        "input": "0x47f57b32",
        "nonce": "0x188",
        "chainId": "0xaa36a7"
      },
      "additionalContracts": [],
      "isFixedGasLimit": false
    },
    {
      "hash": "0x93e8471fde17420ef95072b20cfa1c99a05946fab08c77bfe3dd0b3daf782ef3",
      "transactionType": "CALL",
      "contractName": null,
      "contractAddress": "0x0db66780a85a1eac2d60d19814dbd4f52a951458",
      "function": "revise(uint256,bytes32)",
      "arguments": [
        "35707666377435648211887908874984608119992236509074197713628505308453184860938",
        "0x0000000000000000000000001804c8ab1f12e6bbf3894d4083f33e07309d1f38"
      ],
      "transaction": {
        "from": "0xd54b58f084bfdec0458254832cf4bbc39a168c99",
        "to": "0x0db66780a85a1eac2d60d19814dbd4f52a951458",
        "gas": "0x9ea5",
        "value": "0x0",
        "input": "0x0339f3004ef1d2ad89edf8c4d91132028e8195cdf30bb4b5053d4f8cd260341d4805f30a0000000000000000000000001804c8ab1f12e6bbf3894d4083f33e07309d1f38",
        "nonce": "0x189",
        "chainId": "0xaa36a7"
      },
      "additionalContracts": [],
      "isFixedGasLimit": false
    }
  ],
  "receipts": [
    {
      "status": "0x1",
      "cumulativeGasUsed": "0x1226871",
      "logs": [],
      "logsBloom": "0x00000000000000000000000000000000000000000000000000000000000000000000000000000000000000000000000000000000000000000000000000000000000000000000000000000000000000000000000000000000000000000000000000000000000000000000000000000000000000000000000000000000000000000000000000000000000000000000000000000000000000000000000000000000000000000000000000000000000000000000000000000000000000000000000000000000000000000000000000000000000000000000000000000000000000000000000000000000000000000000000000000000000000000000000000000000",
      "type": "0x2",
      "transactionHash": "0x57a610c8d6ad6635ee0c79c6912855471ab809d79d1bb7659a1094189fced529",
      "transactionIndex": "0x69",
      "blockHash": "0x37cc63dbd6dc56117dc07e08d78a1c3317357722c4ad4a423c5e0a65028d1275",
      "blockNumber": "0x8044be",
      "gasUsed": "0x66a8",
      "effectiveGasPrice": "0xf4258",
      "from": "0xd54b58f084bfdec0458254832cf4bbc39a168c99",
      "to": "0x0db66780a85a1eac2d60d19814dbd4f52a951458",
      "contractAddress": null
    },
    {
      "status": "0x1",
      "cumulativeGasUsed": "0x1231aea",
      "logs": [],
      "logsBloom": "0x00000000000000000000000000000000000000000000000000000000000000000000000000000000000000000000000000000000000000000000000000000000000000000000000000000000000000000000000000000000000000000000000000000000000000000000000000000000000000000000000000000000000000000000000000000000000000000000000000000000000000000000000000000000000000000000000000000000000000000000000000000000000000000000000000000000000000000000000000000000000000000000000000000000000000000000000000000000000000000000000000000000000000000000000000000000",
      "type": "0x2",
      "transactionHash": "0x74aec86582a4cc744e1f23e0a822b3d8adffbec8d8f4440d025cb52501c5f3dc",
      "transactionIndex": "0x6a",
      "blockHash": "0x37cc63dbd6dc56117dc07e08d78a1c3317357722c4ad4a423c5e0a65028d1275",
      "blockNumber": "0x8044be",
      "gasUsed": "0xb279",
      "effectiveGasPrice": "0xf4258",
      "from": "0xd54b58f084bfdec0458254832cf4bbc39a168c99",
      "to": "0x0db66780a85a1eac2d60d19814dbd4f52a951458",
      "contractAddress": null
    },
    {
      "status": "0x1",
      "cumulativeGasUsed": "0x1238dc6",
      "logs": [],
      "logsBloom": "0x00000000000000000000000000000000000000000000000000000000000000000000000000000000000000000000000000000000000000000000000000000000000000000000000000000000000000000000000000000000000000000000000000000000000000000000000000000000000000000000000000000000000000000000000000000000000000000000000000000000000000000000000000000000000000000000000000000000000000000000000000000000000000000000000000000000000000000000000000000000000000000000000000000000000000000000000000000000000000000000000000000000000000000000000000000000",
      "type": "0x2",
      "transactionHash": "0x93e8471fde17420ef95072b20cfa1c99a05946fab08c77bfe3dd0b3daf782ef3",
      "transactionIndex": "0x6b",
      "blockHash": "0x37cc63dbd6dc56117dc07e08d78a1c3317357722c4ad4a423c5e0a65028d1275",
      "blockNumber": "0x8044be",
      "gasUsed": "0x72dc",
      "effectiveGasPrice": "0xf4258",
      "from": "0xd54b58f084bfdec0458254832cf4bbc39a168c99",
      "to": "0x0db66780a85a1eac2d60d19814dbd4f52a951458",
      "contractAddress": null
    }
  ],
  "libraries": [],
  "pending": [],
  "returns": {},
  "timestamp": 1748211110,
  "chain": 11155111,
  "commit": "34ed48d"
}