{
  "transactions": [
    {
      "hash": "0xadbbffcbfb2f6e16fa8d6b734f2b3bbd73f2bd3c6f4359291c10e248b1613286",
      "transactionType": "CALL",
      "contractName": null,
      "contractAddress": "0x0db66780a85a1eac2d60d19814dbd4f52a951458",
      "function": "makeContact()",
      "arguments": [],
      "transaction": {
        "from": "0xd54b58f084bfdec0458254832cf4bbc39a168c99",
        "to": "0x0db66780a85a1eac2d60d19814dbd4f52a951458",
        "gas": "0x8dca",
        "value": "0x0",
        "input": "0x328b52cb",
        "nonce": "0x18a",
        "chainId": "0xaa36a7"
      },
      "additionalContracts": [],
      "isFixedGasLimit": false
    },
    {
      "hash": "0x621fca4ff291865c4661a06e76a2504998688fbd1f58a77ccf7eada01b111ab5",
      "transactionType": "CALL",
      "contractName": null,
      "contractAddress": "0x0db66780a85a1eac2d60d19814dbd4f52a951458",
      "function": "retract()",
      "arguments": [],
      "transaction": {
        "from": "0xd54b58f084bfdec0458254832cf4bbc39a168c99",
        "to": "0x0db66780a85a1eac2d60d19814dbd4f52a951458",
        "gas": "0xb104",
        "value": "0x0",
        "input": "0x47f57b32",
        "nonce": "0x18b",
        "chainId": "0xaa36a7"
      },
      "additionalContracts": [],
      "isFixedGasLimit": false
    },
    {
      "hash": "0xa9f045ef03fa6e0568f3f95c9e5b07fb4954f67ba63db896b0bebf56b93ab2d8",
      "transactionType": "CALL",
      "contractName": null,
      "contractAddress": "0x0db66780a85a1eac2d60d19814dbd4f52a951458",
      "function": "revise(uint256,bytes32)",
      "arguments": [
        "35707666377435648211887908874984608119992236509074197713628505308453184860938",
        "0x000000000000000000000000d54b58f084bfdec0458254832cf4bbc39a168c99"
      ],
      "transaction": {
        "from": "0xd54b58f084bfdec0458254832cf4bbc39a168c99",
        "to": "0x0db66780a85a1eac2d60d19814dbd4f52a951458",
        "gas": "0x9ea5",
        "value": "0x0",
        "input": "0x0339f3004ef1d2ad89edf8c4d91132028e8195cdf30bb4b5053d4f8cd260341d4805f30a000000000000000000000000d54b58f084bfdec0458254832cf4bbc39a168c99",
        "nonce": "0x18c",
        "chainId": "0xaa36a7"
      },
      "additionalContracts": [],
      "isFixedGasLimit": false
    }
  ],
  "receipts": [
    {
      "status": "0x1",
      "cumulativeGasUsed": "0x1ac5725",
      "logs": [],
      "logsBloom": "0x00000000000000000000000000000000000000000000000000000000000000000000000000000000000000000000000000000000000000000000000000000000000000000000000000000000000000000000000000000000000000000000000000000000000000000000000000000000000000000000000000000000000000000000000000000000000000000000000000000000000000000000000000000000000000000000000000000000000000000000000000000000000000000000000000000000000000000000000000000000000000000000000000000000000000000000000000000000000000000000000000000000000000000000000000000000",
      "type": "0x2",
      "transactionHash": "0xadbbffcbfb2f6e16fa8d6b734f2b3bbd73f2bd3c6f4359291c10e248b1613286",
      "transactionIndex": "0x94",
      "blockHash": "0x9aef923aa8d94b805ed8cc439538851902f9ecdba4fef766a5363aa5b6cc0fc3",
      "blockNumber": "0x8044cb",
      "gasUsed": "0x66a8",
      "effectiveGasPrice": "0xf4256",
      "from": "0xd54b58f084bfdec0458254832cf4bbc39a168c99",
      "to": "0x0db66780a85a1eac2d60d19814dbd4f52a951458",
      "contractAddress": null
    },
    {
      "status": "0x1",
      "cumulativeGasUsed": "0x1acd02f",
      "logs": [],
      "logsBloom": "0x00000000000000000000000000000000000000000000000000000000000000000000000000000000000000000000000000000000000000000000000000000000000000000000000000000000000000000000000000000000000000000000000000000000000000000000000000000000000000000000000000000000000000000000000000000000000000000000000000000000000000000000000000000000000000000000000000000000000000000000000000000000000000000000000000000000000000000000000000000000000000000000000000000000000000000000000000000000000000000000000000000000000000000000000000000000",
      "type": "0x2",
      "transactionHash": "0x621fca4ff291865c4661a06e76a2504998688fbd1f58a77ccf7eada01b111ab5",
      "transactionIndex": "0x95",
      "blockHash": "0x9aef923aa8d94b805ed8cc439538851902f9ecdba4fef766a5363aa5b6cc0fc3",
      "blockNumber": "0x8044cb",
      "gasUsed": "0x790a",
      "effectiveGasPrice": "0xf4256",
      "from": "0xd54b58f084bfdec0458254832cf4bbc39a168c99",
      "to": "0x0db66780a85a1eac2d60d19814dbd4f52a951458",
      "contractAddress": null
    },
    {
      "status": "0x1",
      "cumulativeGasUsed": "0x1ad430b",
      "logs": [],
      "logsBloom": "0x00000000000000000000000000000000000000000000000000000000000000000000000000000000000000000000000000000000000000000000000000000000000000000000000000000000000000000000000000000000000000000000000000000000000000000000000000000000000000000000000000000000000000000000000000000000000000000000000000000000000000000000000000000000000000000000000000000000000000000000000000000000000000000000000000000000000000000000000000000000000000000000000000000000000000000000000000000000000000000000000000000000000000000000000000000000",
      "type": "0x2",
      "transactionHash": "0xa9f045ef03fa6e0568f3f95c9e5b07fb4954f67ba63db896b0bebf56b93ab2d8",
      "transactionIndex": "0x96",
      "blockHash": "0x9aef923aa8d94b805ed8cc439538851902f9ecdba4fef766a5363aa5b6cc0fc3",
      "blockNumber": "0x8044cb",
      "gasUsed": "0x72dc",
      "effectiveGasPrice": "0xf4256",
      "from": "0xd54b58f084bfdec0458254832cf4bbc39a168c99",
      "to": "0x0db66780a85a1eac2d60d19814dbd4f52a951458",
      "contractAddress": null
    }
  ],
  "libraries": [],
  "pending": [],
  "returns": {},
  "timestamp": 1748211265,
  "chain": 11155111,
  "commit": "34ed48d"
}