{
  "transactions": [
    {
      "hash": "0xcd086c5490993bae94af77ba79c27997aabfebd8d738115ab888e5b76b4ce91b",
      "transactionType": "CALL",
      "contractName": null,
      "contractAddress": "0xa8bea3a3ad8700647f581a79ec6e93a1a0e770a9",
      "function": "makeContact()",
      "arguments": [],
      "transaction": {
        "from": "0xd54b58f084bfdec0458254832cf4bbc39a168c99",
        "to": "0xa8bea3a3ad8700647f581a79ec6e93a1a0e770a9",
        "gas": "0x8dca",
        "value": "0x0",
        "input": "0x328b52cb",
        "nonce": "0x18e",
        "chainId": "0xaa36a7"
      },
      "additionalContracts": [],
      "isFixedGasLimit": false
    },
    {
      "hash": "0xed552c38b8a319f13538c7a1bb40c27b854d1baca80687acc56c77fe7008da21",
      "transactionType": "CALL",
      "contractName": null,
      "contractAddress": "0xa8bea3a3ad8700647f581a79ec6e93a1a0e770a9",
      "function": "retract()",
      "arguments": [],
      "transaction": {
        "from": "0xd54b58f084bfdec0458254832cf4bbc39a168c99",
        "to": "0xa8bea3a3ad8700647f581a79ec6e93a1a0e770a9",
        "gas": "0x10504",
        "value": "0x0",
        "input": "0x47f57b32",
        "nonce": "0x18f",
        "chainId": "0xaa36a7"
      },
      "additionalContracts": [],
      "isFixedGasLimit": false
    },
    {
      "hash": "0xbbe38078830f5973a33da0df4a652b7b6415d671501b249b49c0f2c62d2c4eb2",
      "transactionType": "CALL",
      "contractName": null,
      "contractAddress": "0xa8bea3a3ad8700647f581a79ec6e93a1a0e770a9",
      "function": "revise(uint256,bytes32)",
      "arguments": [
        "35707666377435648211887908874984608119992236509074197713628505308453184860938",
        "0x000000000000000000000000d54b58f084bfdec0458254832cf4bbc39a168c99"
      ],
      "transaction": {
        "from": "0xd54b58f084bfdec0458254832cf4bbc39a168c99",
        "to": "0xa8bea3a3ad8700647f581a79ec6e93a1a0e770a9",
        "gas": "0x9ea5",
        "value": "0x0",
        "input": "0x0339f3004ef1d2ad89edf8c4d91132028e8195cdf30bb4b5053d4f8cd260341d4805f30a000000000000000000000000d54b58f084bfdec0458254832cf4bbc39a168c99",
        "nonce": "0x190",
        "chainId": "0xaa36a7"
      },
      "additionalContracts": [],
      "isFixedGasLimit": false
    }
  ],
  "receipts": [
    {
      "status": "0x1",
      "cumulativeGasUsed": "0xaf7371",
      "logs": [],
      "logsBloom": "0x00000000000000000000000000000000000000000000000000000000000000000000000000000000000000000000000000000000000000000000000000000000000000000000000000000000000000000000000000000000000000000000000000000000000000000000000000000000000000000000000000000000000000000000000000000000000000000000000000000000000000000000000000000000000000000000000000000000000000000000000000000000000000000000000000000000000000000000000000000000000000000000000000000000000000000000000000000000000000000000000000000000000000000000000000000000",
      "type": "0x2",
      "transactionHash": "0xcd086c5490993bae94af77ba79c27997aabfebd8d738115ab888e5b76b4ce91b",
      "transactionIndex": "0x67",
      "blockHash": "0x86eebd453f2ea48ad8ce856c31f24f6e070ba247654f9013a17b94e09b733aee",
      "blockNumber": "0x8044d0",
      "gasUsed": "0x66a8",
      "effectiveGasPrice": "0xf4256",
      "from": "0xd54b58f084bfdec0458254832cf4bbc39a168c99",
      "to": "0xa8bea3a3ad8700647f581a79ec6e93a1a0e770a9",
      "contractAddress": null
    },
    {
      "status": "0x1",
      "cumulativeGasUsed": "0xb025ea",
      "logs": [],
      "logsBloom": "0x00000000000000000000000000000000000000000000000000000000000000000000000000000000000000000000000000000000000000000000000000000000000000000000000000000000000000000000000000000000000000000000000000000000000000000000000000000000000000000000000000000000000000000000000000000000000000000000000000000000000000000000000000000000000000000000000000000000000000000000000000000000000000000000000000000000000000000000000000000000000000000000000000000000000000000000000000000000000000000000000000000000000000000000000000000000",
      "type": "0x2",
      "transactionHash": "0xed552c38b8a319f13538c7a1bb40c27b854d1baca80687acc56c77fe7008da21",
      "transactionIndex": "0x68",
      "blockHash": "0x86eebd453f2ea48ad8ce856c31f24f6e070ba247654f9013a17b94e09b733aee",
      "blockNumber": "0x8044d0",
      "gasUsed": "0xb279",
      "effectiveGasPrice": "0xf4256",
      "from": "0xd54b58f084bfdec0458254832cf4bbc39a168c99",
      "to": "0xa8bea3a3ad8700647f581a79ec6e93a1a0e770a9",
      "contractAddress": null
    },
    {
      "status": "0x1",
      "cumulativeGasUsed": "0xb098c6",
      "logs": [],
      "logsBloom": "0x00000000000000000000000000000000000000000000000000000000000000000000000000000000000000000000000000000000000000000000000000000000000000000000000000000000000000000000000000000000000000000000000000000000000000000000000000000000000000000000000000000000000000000000000000000000000000000000000000000000000000000000000000000000000000000000000000000000000000000000000000000000000000000000000000000000000000000000000000000000000000000000000000000000000000000000000000000000000000000000000000000000000000000000000000000000",
      "type": "0x2",
      "transactionHash": "0xbbe38078830f5973a33da0df4a652b7b6415d671501b249b49c0f2c62d2c4eb2",
      "transactionIndex": "0x69",
      "blockHash": "0x86eebd453f2ea48ad8ce856c31f24f6e070ba247654f9013a17b94e09b733aee",
      "blockNumber": "0x8044d0",
      "gasUsed": "0x72dc",
      "effectiveGasPrice": "0xf4256",
      "from": "0xd54b58f084bfdec0458254832cf4bbc39a168c99",
      "to": "0xa8bea3a3ad8700647f581a79ec6e93a1a0e770a9",
      "contractAddress": null
    }
  ],
  "libraries": [],
  "pending": [],
  "returns": {},
  "timestamp": 1748211326,
  "chain": 11155111,
  "commit": "34ed48d"
}