{
  "transactions": [
    {
      "hash": "0xf90de18f40c415d0e52daec1654bd11e9a5bde7eca305e01b85dd2d287493fc2",
      "transactionType": "CALL",
      "contractName": null,
      "contractAddress": "0x4bbe22c4d4fbc359da5b21c59a5c343643a21f2d",
      "function": "setFirstTime(uint256)",
      "arguments": [
        "910515890471654958140523710230010287858975992326"
      ],
      "transaction": {
        "from": "0xd54b58f084bfdec0458254832cf4bbc39a168c99",
        "to": "0x4bbe22c4d4fbc359da5b21c59a5c343643a21f2d",
        "gas": "0x912d",
        "value": "0x0",
        "input": "0xf1e026200000000000000000000000009f7cf1d1f558e57ef88a59ac3d47214ef25b6a06",
        "nonce": "0x14c",
        "chainId": "0xaa36a7"
      },
      "additionalContracts": [],
      "isFixedGasLimit": false
    },
    {
      "hash": "0x3635a25197bb2cb6f9a06f4475f436871b368ee1d99739c2fa4e9b42a210adf9",
      "transactionType": "CALL",
      "contractName": null,
      "contractAddress": "0x4bbe22c4d4fbc359da5b21c59a5c343643a21f2d",
      "function": "setFirstTime(uint256)",
      "arguments": [
        "1217695337800752013396051244797189447537432890521"
      ],
      "transaction": {
        "from": "0xd54b58f084bfdec0458254832cf4bbc39a168c99",
        "to": "0x4bbe22c4d4fbc359da5b21c59a5c343643a21f2d",
        "gas": "0x912d",
        "value": "0x0",
        "input": "0xf1e02620000000000000000000000000d54b58f084bfdec0458254832cf4bbc39a168c99",
        "nonce": "0x14d",
        "chainId": "0xaa36a7"
      },
      "additionalContracts": [],
      "isFixedGasLimit": false
    }
  ],
  "receipts": [
    {
      "status": "0x1",
      "cumulativeGasUsed": "0x188126c",
      "logs": [],
      "logsBloom": "0x00000000000000000000000000000000000000000000000000000000000000000000000000000000000000000000000000000000000000000000000000000000000000000000000000000000000000000000000000000000000000000000000000000000000000000000000000000000000000000000000000000000000000000000000000000000000000000000000000000000000000000000000000000000000000000000000000000000000000000000000000000000000000000000000000000000000000000000000000000000000000000000000000000000000000000000000000000000000000000000000000000000000000000000000000000000",
      "type": "0x2",
      "transactionHash": "0xf90de18f40c415d0e52daec1654bd11e9a5bde7eca305e01b85dd2d287493fc2",
      "transactionIndex": "0xbc",
      "blockHash": "0xf512bf62ae545732947164d4d3245504745943562626e613e97eb26365cc8698",
      "blockNumber": "0x80415d",
      "gasUsed": "0x691c",
      "effectiveGasPrice": "0x2f91f7",
      "from": "0xd54b58f084bfdec0458254832cf4bbc39a168c99",
      "to": "0x4bbe22c4d4fbc359da5b21c59a5c343643a21f2d",
      "contractAddress": null
    },
    {
      "status": "0x1",
      "cumulativeGasUsed": "0x1887b88",
      "logs": [],
      "logsBloom": "0x00000000000000000000000000000000000000000000000000000000000000000000000000000000000000000000000000000000000000000000000000000000000000000000000000000000000000000000000000000000000000000000000000000000000000000000000000000000000000000000000000000000000000000000000000000000000000000000000000000000000000000000000000000000000000000000000000000000000000000000000000000000000000000000000000000000000000000000000000000000000000000000000000000000000000000000000000000000000000000000000000000000000000000000000000000000",
      "type": "0x2",
      "transactionHash": "0x3635a25197bb2cb6f9a06f4475f436871b368ee1d99739c2fa4e9b42a210adf9",
      "transactionIndex": "0xbd",
      "blockHash": "0xf512bf62ae545732947164d4d3245504745943562626e613e97eb26365cc8698",
      "blockNumber": "0x80415d",
      "gasUsed": "0x691c",
      "effectiveGasPrice": "0x2f91f7",
      "from": "0xd54b58f084bfdec0458254832cf4bbc39a168c99",
      "to": "0x4bbe22c4d4fbc359da5b21c59a5c343643a21f2d",
      "contractAddress": null
    }
  ],
  "libraries": [],
  "pending": [],
  "returns": {},
  "timestamp": 1748200489,
  "chain": 11155111,
  "commit": "34ed48d"
}