{
  "transactions": [
    {
      "hash": "0x2dddb7898f60b9237533d3159862f7cf9ec5d1c5d0d4f632f0375f8e5cb8afc6",
      "transactionType": "CREATE",
      "contractName": "PoopyLibrary",
      "contractAddress": "0x753fd925eb582624cabf31646b1b546f54113065",
      "function": null,
      "arguments": null,
      "transaction": {
        "from": "0xd54b58f084bfdec0458254832cf4bbc39a168c99",
        "gas": "0x257ae",
        "value": "0x0",
        "input": "0x6080604052348015600e575f5ffd5b5061012c8061001c5f395ff3fe6080604052348015600e575f5ffd5b50600436106044575f3560e01c806336cf7c871460485780633beb26c41460755780635b84e9c31460bc5780638da5cb5b1460ce575b5f5ffd5b5f546059906001600160a01b031681565b6040516001600160a01b03909116815260200160405180910390f35b60ba608036600460e0565b600280547fffffffffffffffffffffffff0000000000000000000000000000000000000000166001600160a01b0392909216919091179055565b005b6001546059906001600160a01b031681565b6002546059906001600160a01b031681565b5f6020828403121560ef575f5ffd5b503591905056fea264697066735822122071b34b6dbf2eea079eac57627d3e8458a6dd21c1b823a375a8054f87e12b447364736f6c634300081d0033",
        "nonce": "0x179",
        "chainId": "0xaa36a7"
      },
      "additionalContracts": [],
      "isFixedGasLimit": false
    },
    {
      "hash": "0xabd63bf7ae17e483c51f56d32c4fb0d27c504854dd6cac6618ac80972489a978",
      "transactionType": "CALL",
      "contractName": null,
      "contractAddress": "0x02047c75ab5c3c3151281e2057ac458b16f3868e",
      "function": "setFirstTime(uint256)",
      "arguments": [
        "669375783403217696420972243789098722632995516517"
      ],
      "transaction": {
        "from": "0xd54b58f084bfdec0458254832cf4bbc39a168c99",
        "to": "0x02047c75ab5c3c3151281e2057ac458b16f3868e",
        "gas": "0xb7c7",
        "value": "0x0",
        "input": "0xf1e02620000000000000000000000000753fd925eb582624cabf31646b1b546f54113065",
        "nonce": "0x17a",
        "chainId": "0xaa36a7"
      },
      "additionalContracts": [],
      "isFixedGasLimit": false
    },
    {
      "hash": "0x23d17e79b4508e09d1091ced96f5bf8f76d0950067e69f765260137c6137b8e3",
      "transactionType": "CALL",
      "contractName": null,
      "contractAddress": "0x02047c75ab5c3c3151281e2057ac458b16f3868e",
      "function": "setFirstTime(uint256)",
      "arguments": [
        "1217695337800752013396051244797189447537432890521"
      ],
      "transaction": {
        "from": "0xd54b58f084bfdec0458254832cf4bbc39a168c99",
        "to": "0x02047c75ab5c3c3151281e2057ac458b16f3868e",
        "gas": "0xb7c7",
        "value": "0x0",
        "input": "0xf1e02620000000000000000000000000d54b58f084bfdec0458254832cf4bbc39a168c99",
        "nonce": "0x17b",
        "chainId": "0xaa36a7"
      },
      "additionalContracts": [],
      "isFixedGasLimit": false
    }
  ],
  "receipts": [
    {
      "status": "0x1",
      "cumulativeGasUsed": "0xf1cce3",
      "logs": [],
      "logsBloom": "0x00000000000000000000000000000000000000000000000000000000000000000000000000000000000000000000000000000000000000000000000000000000000000000000000000000000000000000000000000000000000000000000000000000000000000000000000000000000000000000000000000000000000000000000000000000000000000000000000000000000000000000000000000000000000000000000000000000000000000000000000000000000000000000000000000000000000000000000000000000000000000000000000000000000000000000000000000000000000000000000000000000000000000000000000000000000",
      "type": "0x2",
      "transactionHash": "0x2dddb7898f60b9237533d3159862f7cf9ec5d1c5d0d4f632f0375f8e5cb8afc6",
      "transactionIndex": "0x75",
      "blockHash": "0xeae8c88525050b9f281644be95f525e03f18a375fd9fe2848af0cf11501ae184",
      "blockNumber": "0x804458",
      "gasUsed": "0x1cd4b",
      "effectiveGasPrice": "0xf428b",
      "from": "0xd54b58f084bfdec0458254832cf4bbc39a168c99",
      "to": null,
      "contractAddress": "0x753fd925eb582624cabf31646b1b546f54113065"
    },
    {
      "status": "0x1",
      "cumulativeGasUsed": "0xf24a8c",
      "logs": [],
      "logsBloom": "0x00000000000000000000000000000000000000000000000000000000000000000000000000000000000000000000000000000000000000000000000000000000000000000000000000000000000000000000000000000000000000000000000000000000000000000000000000000000000000000000000000000000000000000000000000000000000000000000000000000000000000000000000000000000000000000000000000000000000000000000000000000000000000000000000000000000000000000000000000000000000000000000000000000000000000000000000000000000000000000000000000000000000000000000000000000000",
      "type": "0x2",
      "transactionHash": "0xabd63bf7ae17e483c51f56d32c4fb0d27c504854dd6cac6618ac80972489a978",
      "transactionIndex": "0x76",
      "blockHash": "0xeae8c88525050b9f281644be95f525e03f18a375fd9fe2848af0cf11501ae184",
      "blockNumber": "0x804458",
      "gasUsed": "0x7da9",
      "effectiveGasPrice": "0xf428b",
      "from": "0xd54b58f084bfdec0458254832cf4bbc39a168c99",
      "to": "0x02047c75ab5c3c3151281e2057ac458b16f3868e",
      "contractAddress": null
    },
    {
      "status": "0x1",
      "cumulativeGasUsed": "0xf2c835",
      "logs": [],
      "logsBloom": "0x00000000000000000000000000000000000000000000000000000000000000000000000000000000000000000000000000000000000000000000000000000000000000000000000000000000000000000000000000000000000000000000000000000000000000000000000000000000000000000000000000000000000000000000000000000000000000000000000000000000000000000000000000000000000000000000000000000000000000000000000000000000000000000000000000000000000000000000000000000000000000000000000000000000000000000000000000000000000000000000000000000000000000000000000000000000",
      "type": "0x2",
      "transactionHash": "0x23d17e79b4508e09d1091ced96f5bf8f76d0950067e69f765260137c6137b8e3",
      "transactionIndex": "0x77",
      "blockHash": "0xeae8c88525050b9f281644be95f525e03f18a375fd9fe2848af0cf11501ae184",
      "blockNumber": "0x804458",
      "gasUsed": "0x7da9",
      "effectiveGasPrice": "0xf428b",
      "from": "0xd54b58f084bfdec0458254832cf4bbc39a168c99",
      "to": "0x02047c75ab5c3c3151281e2057ac458b16f3868e",
      "contractAddress": null
    }
  ],
  "libraries": [],
  "pending": [],
  "returns": {},
  "timestamp": 1748209837,
  "chain": 11155111,
  "commit": "34ed48d"
}