{
  "transactions": [
    {
      "hash": "0xcff60e7d784c2b86a866cef4d0148dfa85cf5237b4bda622906a0561c6342269",
      "transactionType": "CALL",
      "contractName": null,
      "contractAddress": "0x8cbf49bd05bd96b28badbf255f824f180a9a520f",
      "function": "setFirstTime(uint256)",
      "arguments": [
        "910515890471654958140523710230010287858975992326"
      ],
      "transaction": {
        "from": "0xd54b58f084bfdec0458254832cf4bbc39a168c99",
        "to": "0x8cbf49bd05bd96b28badbf255f824f180a9a520f",
        "gas": "0xa1d9",
        "value": "0x0",
        "input": "0xf1e026200000000000000000000000009f7cf1d1f558e57ef88a59ac3d47214ef25b6a06",
        "nonce": "0x158",
        "chainId": "0xaa36a7"
      },
      "additionalContracts": [],
      "isFixedGasLimit": false
    },
    {
      "hash": "0xac470ff96591aab90faddfc6ce957ac70726346ee042e30e3414c74318ccf22a",
      "transactionType": "CALL",
      "contractName": null,
      "contractAddress": "0x8cbf49bd05bd96b28badbf255f824f180a9a520f",
      "function": "setFirstTime(uint256)",
      "arguments": [
        "1217695337800752013396051244797189447537432890521"
      ],
      "transaction": {
        "from": "0xd54b58f084bfdec0458254832cf4bbc39a168c99",
        "to": "0x8cbf49bd05bd96b28badbf255f824f180a9a520f",
        "gas": "0x912d",
        "value": "0x0",
        "input": "0xf1e02620000000000000000000000000d54b58f084bfdec0458254832cf4bbc39a168c99",
        "nonce": "0x159",
        "chainId": "0xaa36a7"
      },
      "additionalContracts": [],
      "isFixedGasLimit": false
    }
  ],
  "receipts": [
    {
      "status": "0x1",
      "cumulativeGasUsed": "0xd6aaa1",
      "logs": [],
      "logsBloom": "0x00000000000000000000000000000000000000000000000000000000000000000000000000000000000000000000000000000000000000000000000000000000000000000000000000000000000000000000000000000000000000000000000000000000000000000000000000000000000000000000000000000000000000000000000000000000000000000000000000000000000000000000000000000000000000000000000000000000000000000000000000000000000000000000000000000000000000000000000000000000000000000000000000000000000000000000000000000000000000000000000000000000000000000000000000000000",
      "type": "0x2",
      "transactionHash": "0xcff60e7d784c2b86a866cef4d0148dfa85cf5237b4bda622906a0561c6342269",
      "transactionIndex": "0x68",
      "blockHash": "0xbbc3abc6551838369dcdf368b162c6483d59f5b92295c2ddbec38dcf08172722",
      "blockNumber": "0x8041a1",
      "gasUsed": "0x752e",
      "effectiveGasPrice": "0x236d35",
      "from": "0xd54b58f084bfdec0458254832cf4bbc39a168c99",
      "to": "0x8cbf49bd05bd96b28badbf255f824f180a9a520f",
      "contractAddress": null
    },
    {
      "status": "0x1",
      "cumulativeGasUsed": "0xd713bd",
      "logs": [],
      "logsBloom": "0x00000000000000000000000000000000000000000000000000000000000000000000000000000000000000000000000000000000000000000000000000000000000000000000000000000000000000000000000000000000000000000000000000000000000000000000000000000000000000000000000000000000000000000000000000000000000000000000000000000000000000000000000000000000000000000000000000000000000000000000000000000000000000000000000000000000000000000000000000000000000000000000000000000000000000000000000000000000000000000000000000000000000000000000000000000000",
      "type": "0x2",
      "transactionHash": "0xac470ff96591aab90faddfc6ce957ac70726346ee042e30e3414c74318ccf22a",
      "transactionIndex": "0x69",
      "blockHash": "0xbbc3abc6551838369dcdf368b162c6483d59f5b92295c2ddbec38dcf08172722",
      "blockNumber": "0x8041a1",
      "gasUsed": "0x691c",
      "effectiveGasPrice": "0x236d35",
      "from": "0xd54b58f084bfdec0458254832cf4bbc39a168c99",
      "to": "0x8cbf49bd05bd96b28badbf255f824f180a9a520f",
      "contractAddress": null
    }
  ],
  "libraries": [],
  "pending": [],
  "returns": {},
  "timestamp": 1748201316,
  "chain": 11155111,
  "commit": "34ed48d"
}