{
  "transactions": [
    {
      "hash": "0xf3533d1a076b57e0e1da75cbbeb47c2149b0546fd6c8c53f6d895ac961757f62",
      "transactionType": "CREATE",
      "contractName": "PoopyLibrary",
      "contractAddress": "0xa15da965f19fb57b530f51646c1e559e60a273c9",
      "function": null,
      "arguments": null,
      "transaction": {
        "from": "0xd54b58f084bfdec0458254832cf4bbc39a168c99",
        "gas": "0x257ae",
        "value": "0x0",
        "input": "0x6080604052348015600e575f5ffd5b5061012c8061001c5f395ff3fe6080604052348015600e575f5ffd5b50600436106044575f3560e01c806336cf7c871460485780633beb26c41460755780635b84e9c31460bc5780638da5cb5b1460ce575b5f5ffd5b5f546059906001600160a01b031681565b6040516001600160a01b03909116815260200160405180910390f35b60ba608036600460e0565b600280547fffffffffffffffffffffffff0000000000000000000000000000000000000000166001600160a01b0392909216919091179055565b005b6001546059906001600160a01b031681565b6002546059906001600160a01b031681565b5f6020828403121560ef575f5ffd5b503591905056fea264697066735822122071b34b6dbf2eea079eac57627d3e8458a6dd21c1b823a375a8054f87e12b447364736f6c634300081d0033",
        "nonce": "0x174",
        "chainId": "0xaa36a7"
      },
      "additionalContracts": [],
      "isFixedGasLimit": false
    },
    {
      "hash": "0xf9c6a341d07bf0e95c68b423f4362f7d79a46058f326594cd8c913b7d7a4e525",
      "transactionType": "CALL",
      "contractName": null,
      "contractAddress": "0x02047c75ab5c3c3151281e2057ac458b16f3868e",
      "function": "setFirstTime(uint256)",
      "arguments": [
        "921236240072116240921746862600912691479439373257"
      ],
      "transaction": {
        "from": "0xd54b58f084bfdec0458254832cf4bbc39a168c99",
        "to": "0x02047c75ab5c3c3151281e2057ac458b16f3868e",
        "gas": "0xb7c7",
        "value": "0x0",
        "input": "0xf1e02620000000000000000000000000a15da965f19fb57b530f51646c1e559e60a273c9",
        "nonce": "0x175",
        "chainId": "0xaa36a7"
      },
      "additionalContracts": [],
      "isFixedGasLimit": false
    },
    {
      "hash": "0x7cb5cb1a3f39cc394cc15179fc39796fa661f9b6ae3cd75cd4b010035ee8398e",
      "transactionType": "CALL",
      "contractName": null,
      "contractAddress": "0x02047c75ab5c3c3151281e2057ac458b16f3868e",
      "function": "setFirstTime(uint256)",
      "arguments": [
        "1217695337800752013396051244797189447537432890521"
      ],
      "transaction": {
        "from": "0xd54b58f084bfdec0458254832cf4bbc39a168c99",
        "to": "0x02047c75ab5c3c3151281e2057ac458b16f3868e",
        "gas": "0xb7c7",
        "value": "0x0",
        "input": "0xf1e02620000000000000000000000000d54b58f084bfdec0458254832cf4bbc39a168c99",
        "nonce": "0x176",
        "chainId": "0xaa36a7"
      },
      "additionalContracts": [],
      "isFixedGasLimit": false
    }
  ],
  "receipts": [
    {
      "status": "0x1",
      "cumulativeGasUsed": "0xf35bb5",
      "logs": [],
      "logsBloom": "0x00000000000000000000000000000000000000000000000000000000000000000000000000000000000000000000000000000000000000000000000000000000000000000000000000000000000000000000000000000000000000000000000000000000000000000000000000000000000000000000000000000000000000000000000000000000000000000000000000000000000000000000000000000000000000000000000000000000000000000000000000000000000000000000000000000000000000000000000000000000000000000000000000000000000000000000000000000000000000000000000000000000000000000000000000000000",
      "type": "0x2",
      "transactionHash": "0xf3533d1a076b57e0e1da75cbbeb47c2149b0546fd6c8c53f6d895ac961757f62",
      "transactionIndex": "0x74",
      "blockHash": "0xfcc74fc3516b4d19cb7b6be28a29a2207f022b7a3ee0da7a236abd4b7d94e67f",
      "blockNumber": "0x804441",
      "gasUsed": "0x1cd4b",
      "effectiveGasPrice": "0x10063c",
      "from": "0xd54b58f084bfdec0458254832cf4bbc39a168c99",
      "to": null,
      "contractAddress": "0xa15da965f19fb57b530f51646c1e559e60a273c9"
    },
    {
      "status": "0x1",
      "cumulativeGasUsed": "0xf3d95e",
      "logs": [],
      "logsBloom": "0x00000000000000000000000000000000000000000000000000000000000000000000000000000000000000000000000000000000000000000000000000000000000000000000000000000000000000000000000000000000000000000000000000000000000000000000000000000000000000000000000000000000000000000000000000000000000000000000000000000000000000000000000000000000000000000000000000000000000000000000000000000000000000000000000000000000000000000000000000000000000000000000000000000000000000000000000000000000000000000000000000000000000000000000000000000000",
      "type": "0x2",
      "transactionHash": "0xf9c6a341d07bf0e95c68b423f4362f7d79a46058f326594cd8c913b7d7a4e525",
      "transactionIndex": "0x75",
      "blockHash": "0xfcc74fc3516b4d19cb7b6be28a29a2207f022b7a3ee0da7a236abd4b7d94e67f",
      "blockNumber": "0x804441",
      "gasUsed": "0x7da9",
      "effectiveGasPrice": "0x10063c",
      "from": "0xd54b58f084bfdec0458254832cf4bbc39a168c99",
      "to": "0x02047c75ab5c3c3151281e2057ac458b16f3868e",
      "contractAddress": null
    },
    {
      "status": "0x1",
      "cumulativeGasUsed": "0xf45707",
      "logs": [],
      "logsBloom": "0x00000000000000000000000000000000000000000000000000000000000000000000000000000000000000000000000000000000000000000000000000000000000000000000000000000000000000000000000000000000000000000000000000000000000000000000000000000000000000000000000000000000000000000000000000000000000000000000000000000000000000000000000000000000000000000000000000000000000000000000000000000000000000000000000000000000000000000000000000000000000000000000000000000000000000000000000000000000000000000000000000000000000000000000000000000000",
      "type": "0x2",
      "transactionHash": "0x7cb5cb1a3f39cc394cc15179fc39796fa661f9b6ae3cd75cd4b010035ee8398e",
      "transactionIndex": "0x76",
      "blockHash": "0xfcc74fc3516b4d19cb7b6be28a29a2207f022b7a3ee0da7a236abd4b7d94e67f",
      "blockNumber": "0x804441",
      "gasUsed": "0x7da9",
      "effectiveGasPrice": "0x10063c",
      "from": "0xd54b58f084bfdec0458254832cf4bbc39a168c99",
      "to": "0x02047c75ab5c3c3151281e2057ac458b16f3868e",
      "contractAddress": null
    }
  ],
  "libraries": [],
  "pending": [],
  "returns": {},
  "timestamp": 1748209561,
  "chain": 11155111,
  "commit": "34ed48d"
}