{
  "transactions": [
    {
      "hash": "0x6bf8431fcda351763fc1aef63f6e29e9114ac6cd6cf305ae5f6c78aa8d92e643",
      "transactionType": "CALL",
      "contractName": null,
      "contractAddress": "0x04e304f33e4f316b06f6e4c8db5ceaa5ed9a26bf",
      "function": "setFirstTime(uint256)",
      "arguments": [
        "517689086594599970315878223594074139123995472099"
      ],
      "transaction": {
        "from": "0xd54b58f084bfdec0458254832cf4bbc39a168c99",
        "to": "0x04e304f33e4f316b06f6e4c8db5ceaa5ed9a26bf",
        "gas": "0x912d",
        "value": "0x0",
        "input": "0xf1e026200000000000000000000000005aadfb43ef8daf45dd80f4676345b7676f1d70e3",
        "nonce": "0x142",
        "chainId": "0xaa36a7"
      },
      "additionalContracts": [],
      "isFixedGasLimit": false
    },
    {
      "hash": "0x58dea4f9ade7b8dc7c3b735ff6e8e2cdce6b94f1d0bf0a86d1b3a2ff9eff51de",
      "transactionType": "CALL",
      "contractName": null,
      "contractAddress": "0x04e304f33e4f316b06f6e4c8db5ceaa5ed9a26bf",
      "function": "setFirstTime(uint256)",
      "arguments": [
        "1217695337800752013396051244797189447537432890521"
      ],
      "transaction": {
        "from": "0xd54b58f084bfdec0458254832cf4bbc39a168c99",
        "to": "0x04e304f33e4f316b06f6e4c8db5ceaa5ed9a26bf",
        "gas": "0x912d",
        "value": "0x0",
        "input": "0xf1e02620000000000000000000000000d54b58f084bfdec0458254832cf4bbc39a168c99",
        "nonce": "0x143",
        "chainId": "0xaa36a7"
      },
      "additionalContracts": [],
      "isFixedGasLimit": false
    }
  ],
  "receipts": [
    {
      "status": "0x1",
      "cumulativeGasUsed": "0x2ab94aa",
      "logs": [],
      "logsBloom": "0x00000000000000000000000000000000000000000000000000000000000000000000000000000000000000000000000000000000000000000000000000000000000000000000000000000000000000000000000000000000000000000000000000000000000000000000000000000000000000000000000000000000000000000000000000000000000000000000000000000000000000000000000000000000000000000000000000000000000000000000000000000000000000000000000000000000000000000000000000000000000000000000000000000000000000000000000000000000000000000000000000000000000000000000000000000000",
      "type": "0x2",
      "transactionHash": "0x6bf8431fcda351763fc1aef63f6e29e9114ac6cd6cf305ae5f6c78aa8d92e643",
      "transactionIndex": "0xae",
      "blockHash": "0x6d0e76aec66a98af229f859abddb13530f7a738230b08ae42b7d78aff986d977",
      "blockNumber": "0x804116",
      "gasUsed": "0x691c",
      "effectiveGasPrice": "0x375fdc",
      "from": "0xd54b58f084bfdec0458254832cf4bbc39a168c99",
      "to": "0x04e304f33e4f316b06f6e4c8db5ceaa5ed9a26bf",
      "contractAddress": null
    },
    {
      "status": "0x1",
      "cumulativeGasUsed": "0x2abfdc6",
      "logs": [],
      "logsBloom": "0x00000000000000000000000000000000000000000000000000000000000000000000000000000000000000000000000000000000000000000000000000000000000000000000000000000000000000000000000000000000000000000000000000000000000000000000000000000000000000000000000000000000000000000000000000000000000000000000000000000000000000000000000000000000000000000000000000000000000000000000000000000000000000000000000000000000000000000000000000000000000000000000000000000000000000000000000000000000000000000000000000000000000000000000000000000000",
      "type": "0x2",
      "transactionHash": "0x58dea4f9ade7b8dc7c3b735ff6e8e2cdce6b94f1d0bf0a86d1b3a2ff9eff51de",
      "transactionIndex": "0xaf",
      "blockHash": "0x6d0e76aec66a98af229f859abddb13530f7a738230b08ae42b7d78aff986d977",
      "blockNumber": "0x804116",
      "gasUsed": "0x691c",
      "effectiveGasPrice": "0x375fdc",
      "from": "0xd54b58f084bfdec0458254832cf4bbc39a168c99",
      "to": "0x04e304f33e4f316b06f6e4c8db5ceaa5ed9a26bf",
      "contractAddress": null
    }
  ],
  "libraries": [],
  "pending": [],
  "returns": {},
  "timestamp": 1748199638,
  "chain": 11155111,
  "commit": "34ed48d"
}