{
  "transactions": [
    {
      "hash": "0x582d9518ff1b0d90b8c3b950f1274fea52e68c874bdd305d855834562cdc3d07",
      "transactionType": "CALL",
      "contractName": null,
      "contractAddress": "0x06ea5d1a3a9f6cb957681812b940d6d1fc898da6",
      "function": "setFirstTime(uint256)",
      "arguments": [
        "910515890471654958140523710230010287858975992326"
      ],
      "transaction": {
        "from": "0xd54b58f084bfdec0458254832cf4bbc39a168c99",
        "to": "0x06ea5d1a3a9f6cb957681812b940d6d1fc898da6",
        "gas": "0xa1d9",
        "value": "0x0",
        "input": "0xf1e026200000000000000000000000009f7cf1d1f558e57ef88a59ac3d47214ef25b6a06",
        "nonce": "0x150",
        "chainId": "0xaa36a7"
      },
      "additionalContracts": [],
      "isFixedGasLimit": false
    },
    {
      "hash": "0x9b17ec4c83bfa658521a0faa9dc25b2da2d3e457d69a77b9ba6ca0cb2ec01393",
      "transactionType": "CALL",
      "contractName": null,
      "contractAddress": "0x06ea5d1a3a9f6cb957681812b940d6d1fc898da6",
      "function": "setFirstTime(uint256)",
      "arguments": [
        "1217695337800752013396051244797189447537432890521"
      ],
      "transaction": {
        "from": "0xd54b58f084bfdec0458254832cf4bbc39a168c99",
        "to": "0x06ea5d1a3a9f6cb957681812b940d6d1fc898da6",
        "gas": "0x912d",
        "value": "0x0",
        "input": "0xf1e02620000000000000000000000000d54b58f084bfdec0458254832cf4bbc39a168c99",
        "nonce": "0x151",
        "chainId": "0xaa36a7"
      },
      "additionalContracts": [],
      "isFixedGasLimit": false
    }
  ],
  "receipts": [
    {
      "status": "0x1",
      "cumulativeGasUsed": "0x175d176",
      "logs": [],
      "logsBloom": "0x00000000000000000000000000000000000000000000000000000000000000000000000000000000000000000000000000000000000000000000000000000000000000000000000000000000000000000000000000000000000000000000000000000000000000000000000000000000000000000000000000000000000000000000000000000000000000000000000000000000000000000000000000000000000000000000000000000000000000000000000000000000000000000000000000000000000000000000000000000000000000000000000000000000000000000000000000000000000000000000000000000000000000000000000000000000",
      "type": "0x2",
      "transactionHash": "0x582d9518ff1b0d90b8c3b950f1274fea52e68c874bdd305d855834562cdc3d07",
      "transactionIndex": "0xbc",
      "blockHash": "0xd4f624e8aa6c4e6bbeab91adde2ac455b1051e36a67016ffbe14575a51f248b7",
      "blockNumber": "0x80416b",
      "gasUsed": "0x752e",
      "effectiveGasPrice": "0x2e3e0d",
      "from": "0xd54b58f084bfdec0458254832cf4bbc39a168c99",
      "to": "0x06ea5d1a3a9f6cb957681812b940d6d1fc898da6",
      "contractAddress": null
    },
    {
      "status": "0x1",
      "cumulativeGasUsed": "0x1763a92",
      "logs": [],
      "logsBloom": "0x00000000000000000000000000000000000000000000000000000000000000000000000000000000000000000000000000000000000000000000000000000000000000000000000000000000000000000000000000000000000000000000000000000000000000000000000000000000000000000000000000000000000000000000000000000000000000000000000000000000000000000000000000000000000000000000000000000000000000000000000000000000000000000000000000000000000000000000000000000000000000000000000000000000000000000000000000000000000000000000000000000000000000000000000000000000",
      "type": "0x2",
      "transactionHash": "0x9b17ec4c83bfa658521a0faa9dc25b2da2d3e457d69a77b9ba6ca0cb2ec01393",
      "transactionIndex": "0xbd",
      "blockHash": "0xd4f624e8aa6c4e6bbeab91adde2ac455b1051e36a67016ffbe14575a51f248b7",
      "blockNumber": "0x80416b",
      "gasUsed": "0x691c",
      "effectiveGasPrice": "0x2e3e0d",
      "from": "0xd54b58f084bfdec0458254832cf4bbc39a168c99",
      "to": "0x06ea5d1a3a9f6cb957681812b940d6d1fc898da6",
      "contractAddress": null
    }
  ],
  "libraries": [],
  "pending": [],
  "returns": {},
  "timestamp": 1748200657,
  "chain": 11155111,
  "commit": "34ed48d"
}