{
  "transactions": [
    {
      "hash": "0xca7ee6db8bbfe50107b2072ede0565c81d51754ea6ce968330b3d09be8ab4ebb",
      "transactionType": "CALL",
      "contractName": null,
      "contractAddress": "0xdeddc1c24c8fc9301eb631713d5d1c4930a502fd",
      "function": "setFirstTime(uint256)",
      "arguments": [
        "910515890471654958140523710230010287858975992326"
      ],
      "transaction": {
        "from": "0xd54b58f084bfdec0458254832cf4bbc39a168c99",
        "to": "0xdeddc1c24c8fc9301eb631713d5d1c4930a502fd",
        "gas": "0xa1d9",
        "value": "0x0",
        "input": "0xf1e026200000000000000000000000009f7cf1d1f558e57ef88a59ac3d47214ef25b6a06",
        "nonce": "0x153",
        "chainId": "0xaa36a7"
      },
      "additionalContracts": [],
      "isFixedGasLimit": false
    },
    {
      "hash": "0x0ef5e790c103f2df542405aaf339da7becb36d64ccd2aa6e4a8c5f72f6b8fc06",
      "transactionType": "CALL",
      "contractName": null,
      "contractAddress": "0xdeddc1c24c8fc9301eb631713d5d1c4930a502fd",
      "function": "setFirstTime(uint256)",
      "arguments": [
        "1217695337800752013396051244797189447537432890521"
      ],
      "transaction": {
        "from": "0xd54b58f084bfdec0458254832cf4bbc39a168c99",
        "to": "0xdeddc1c24c8fc9301eb631713d5d1c4930a502fd",
        "gas": "0x912d",
        "value": "0x0",
        "input": "0xf1e02620000000000000000000000000d54b58f084bfdec0458254832cf4bbc39a168c99",
        "nonce": "0x154",
        "chainId": "0xaa36a7"
      },
      "additionalContracts": [],
      "isFixedGasLimit": false
    }
  ],
  "receipts": [
    {
      "status": "0x1",
      "cumulativeGasUsed": "0x14ebe90",
      "logs": [],
      "logsBloom": "0x00000000000000000000000000000000000000000000000000000000000000000000000000000000000000000000000000000000000000000000000000000000000000000000000000000000000000000000000000000000000000000000000000000000000000000000000000000000000000000000000000000000000000000000000000000000000000000000000000000000000000000000000000000000000000000000000000000000000000000000000000000000000000000000000000000000000000000000000000000000000000000000000000000000000000000000000000000000000000000000000000000000000000000000000000000000",
      "type": "0x2",
      "transactionHash": "0xca7ee6db8bbfe50107b2072ede0565c81d51754ea6ce968330b3d09be8ab4ebb",
      "transactionIndex": "0xc4",
      "blockHash": "0x9d66ae469e1306db0511973330a54216ad78c0819fc2ed9f5a54cd945a91015f",
      "blockNumber": "0x804192",
      "gasUsed": "0x752e",
      "effectiveGasPrice": "0x2c762a",
      "from": "0xd54b58f084bfdec0458254832cf4bbc39a168c99",
      "to": "0xdeddc1c24c8fc9301eb631713d5d1c4930a502fd",
      "contractAddress": null
    },
    {
      "status": "0x1",
      "cumulativeGasUsed": "0x14f27ac",
      "logs": [],
      "logsBloom": "0x00000000000000000000000000000000000000000000000000000000000000000000000000000000000000000000000000000000000000000000000000000000000000000000000000000000000000000000000000000000000000000000000000000000000000000000000000000000000000000000000000000000000000000000000000000000000000000000000000000000000000000000000000000000000000000000000000000000000000000000000000000000000000000000000000000000000000000000000000000000000000000000000000000000000000000000000000000000000000000000000000000000000000000000000000000000",
      "type": "0x2",
      "transactionHash": "0x0ef5e790c103f2df542405aaf339da7becb36d64ccd2aa6e4a8c5f72f6b8fc06",
      "transactionIndex": "0xc5",
      "blockHash": "0x9d66ae469e1306db0511973330a54216ad78c0819fc2ed9f5a54cd945a91015f",
      "blockNumber": "0x804192",
      "gasUsed": "0x691c",
      "effectiveGasPrice": "0x2c762a",
      "from": "0xd54b58f084bfdec0458254832cf4bbc39a168c99",
      "to": "0xdeddc1c24c8fc9301eb631713d5d1c4930a502fd",
      "contractAddress": null
    }
  ],
  "libraries": [],
  "pending": [],
  "returns": {},
  "timestamp": 1748201137,
  "chain": 11155111,
  "commit": "34ed48d"
}