{
  "transactions": [
    {
      "hash": "0xb6a48aca31aeda7fb7fb0c52d2c1f7b82e749f0d42cc28e381aca3878b1a069e",
      "transactionType": "CALL",
      "contractName": null,
      "contractAddress": "0x04e304f33e4f316b06f6e4c8db5ceaa5ed9a26bf",
      "function": "setFirstTime(uint256)",
      "arguments": [
        "517689086594599970315878223594074139123995472099"
      ],
      "transaction": {
        "from": "0xd54b58f084bfdec0458254832cf4bbc39a168c99",
        "to": "0x04e304f33e4f316b06f6e4c8db5ceaa5ed9a26bf",
        "gas": "0x912d",
        "value": "0x0",
        "input": "0xf1e026200000000000000000000000005aadfb43ef8daf45dd80f4676345b7676f1d70e3",
        "nonce": "0x144",
        "chainId": "0xaa36a7"
      },
      "additionalContracts": [],
      "isFixedGasLimit": false
    },
    {
      "hash": "0xa2b9d7bc92a44f898a4fd2666f2bf79a9d21ad7c9344bfc3d8ae40247224ea95",
      "transactionType": "CALL",
      "contractName": null,
      "contractAddress": "0x04e304f33e4f316b06f6e4c8db5ceaa5ed9a26bf",
      "function": "setFirstTime(uint256)",
      "arguments": [
        "1217695337800752013396051244797189447537432890521"
      ],
      "transaction": {
        "from": "0xd54b58f084bfdec0458254832cf4bbc39a168c99",
        "to": "0x04e304f33e4f316b06f6e4c8db5ceaa5ed9a26bf",
        "gas": "0x912d",
        "value": "0x0",
        "input": "0xf1e02620000000000000000000000000d54b58f084bfdec0458254832cf4bbc39a168c99",
        "nonce": "0x145",
        "chainId": "0xaa36a7"
      },
      "additionalContracts": [],
      "isFixedGasLimit": false
    }
  ],
  "receipts": [
    {
      "status": "0x1",
      "cumulativeGasUsed": "0x18a242a",
      "logs": [],
      "logsBloom": "0x00000000000000000000000000000000000000000000000000000000000000000000000000000000000000000000000000000000000000000000000000000000000000000000000000000000000000000000000000000000000000000000000000000000000000000000000000000000000000000000000000000000000000000000000000000000000000000000000000000000000000000000000000000000000000000000000000000000000000000000000000000000000000000000000000000000000000000000000000000000000000000000000000000000000000000000000000000000000000000000000000000000000000000000000000000000",
      "type": "0x2",
      "transactionHash": "0xb6a48aca31aeda7fb7fb0c52d2c1f7b82e749f0d42cc28e381aca3878b1a069e",
      "transactionIndex": "0x95",
      "blockHash": "0x070ed9b14b765c82b14ecb84433265ef68dcec122eb88cf4df826a6224d53876",
      "blockNumber": "0x804126",
      "gasUsed": "0x691c",
      "effectiveGasPrice": "0x3b126b",
      "from": "0xd54b58f084bfdec0458254832cf4bbc39a168c99",
      "to": "0x04e304f33e4f316b06f6e4c8db5ceaa5ed9a26bf",
      "contractAddress": null
    },
    {
      "status": "0x1",
      "cumulativeGasUsed": "0x18a8d46",
      "logs": [],
      "logsBloom": "0x00000000000000000000000000000000000000000000000000000000000000000000000000000000000000000000000000000000000000000000000000000000000000000000000000000000000000000000000000000000000000000000000000000000000000000000000000000000000000000000000000000000000000000000000000000000000000000000000000000000000000000000000000000000000000000000000000000000000000000000000000000000000000000000000000000000000000000000000000000000000000000000000000000000000000000000000000000000000000000000000000000000000000000000000000000000",
      "type": "0x2",
      "transactionHash": "0xa2b9d7bc92a44f898a4fd2666f2bf79a9d21ad7c9344bfc3d8ae40247224ea95",
      "transactionIndex": "0x96",
      "blockHash": "0x070ed9b14b765c82b14ecb84433265ef68dcec122eb88cf4df826a6224d53876",
      "blockNumber": "0x804126",
      "gasUsed": "0x691c",
      "effectiveGasPrice": "0x3b126b",
      "from": "0xd54b58f084bfdec0458254832cf4bbc39a168c99",
      "to": "0x04e304f33e4f316b06f6e4c8db5ceaa5ed9a26bf",
      "contractAddress": null
    }
  ],
  "libraries": [],
  "pending": [],
  "returns": {},
  "timestamp": 1748199828,
  "chain": 11155111,
  "commit": "34ed48d"
}