{
  "transactions": [
    {
      "hash": "0xac13d969c2b0e8a3b43ac34319d3a6a6d0d2876a591f9be36822eb8924edaaa5",
      "transactionType": "CREATE",
      "contractName": "PoopyLibrary",
      "contractAddress": "0xfa4c922f06aca171b9520ef147ea8fbc025a44d5",
      "function": null,
      "arguments": null,
      "transaction": {
        "from": "0xd54b58f084bfdec0458254832cf4bbc39a168c99",
        "gas": "0x257ae",
        "value": "0x0",
        "input": "0x6080604052348015600e575f5ffd5b5061012c8061001c5f395ff3fe6080604052348015600e575f5ffd5b50600436106044575f3560e01c806336cf7c871460485780633beb26c41460755780635b84e9c31460bc5780638da5cb5b1460ce575b5f5ffd5b5f546059906001600160a01b031681565b6040516001600160a01b03909116815260200160405180910390f35b60ba608036600460e0565b600280547fffffffffffffffffffffffff0000000000000000000000000000000000000000166001600160a01b0392909216919091179055565b005b6001546059906001600160a01b031681565b6002546059906001600160a01b031681565b5f6020828403121560ef575f5ffd5b503591905056fea264697066735822122071b34b6dbf2eea079eac57627d3e8458a6dd21c1b823a375a8054f87e12b447364736f6c634300081d0033",
        "nonce": "0x15b",
        "chainId": "0xaa36a7"
      },
      "additionalContracts": [],
      "isFixedGasLimit": false
    },
    {
      "hash": "0x3351a247b26fa63829710f8f1480076ee0195c9dcafc3cead46c497c6cdd08d7",
      "transactionType": "CALL",
      "contractName": null,
      "contractAddress": "0x02047c75ab5c3c3151281e2057ac458b16f3868e",
      "function": "setFirstTime(uint256)",
      "arguments": [
        "1428955283736937208209620840824624253831554417877"
      ],
      "transaction": {
        "from": "0xd54b58f084bfdec0458254832cf4bbc39a168c99",
        "to": "0x02047c75ab5c3c3151281e2057ac458b16f3868e",
        "gas": "0xa1d9",
        "value": "0x0",
        "input": "0xf1e02620000000000000000000000000fa4c922f06aca171b9520ef147ea8fbc025a44d5",
        "nonce": "0x15c",
        "chainId": "0xaa36a7"
      },
      "additionalContracts": [],
      "isFixedGasLimit": false
    },
    {
      "hash": "0xa0e306cc61668ec30673eb6d4d98fdb6d7d8a005b3efc4e2499688ac54d73f16",
      "transactionType": "CALL",
      "contractName": null,
      "contractAddress": "0x02047c75ab5c3c3151281e2057ac458b16f3868e",
      "function": "setFirstTime(uint256)",
      "arguments": [
        "1217695337800752013396051244797189447537432890521"
      ],
      "transaction": {
        "from": "0xd54b58f084bfdec0458254832cf4bbc39a168c99",
        "to": "0x02047c75ab5c3c3151281e2057ac458b16f3868e",
        "gas": "0xb7c7",
        "value": "0x0",
        "input": "0xf1e02620000000000000000000000000d54b58f084bfdec0458254832cf4bbc39a168c99",
        "nonce": "0x15d",
        "chainId": "0xaa36a7"
      },
      "additionalContracts": [],
      "isFixedGasLimit": false
    }
  ],
  "receipts": [
    {
      "status": "0x1",
      "cumulativeGasUsed": "0x1d0474f",
      "logs": [],
      "logsBloom": "0x00000000000000000000000000000000000000000000000000000000000000000000000000000000000000000000000000000000000000000000000000000000000000000000000000000000000000000000000000000000000000000000000000000000000000000000000000000000000000000000000000000000000000000000000000000000000000000000000000000000000000000000000000000000000000000000000000000000000000000000000000000000000000000000000000000000000000000000000000000000000000000000000000000000000000000000000000000000000000000000000000000000000000000000000000000000",
      "type": "0x2",
      "transactionHash": "0xac13d969c2b0e8a3b43ac34319d3a6a6d0d2876a591f9be36822eb8924edaaa5",
      "transactionIndex": "0xa5",
      "blockHash": "0xd59fbf99ff351052da63ed7128863deedef0286b31ebe0be5818d3c26c18c0f3",
      "blockNumber": "0x8041cb",
      "gasUsed": "0x1cd4b",
      "effectiveGasPrice": "0x1546b1",
      "from": "0xd54b58f084bfdec0458254832cf4bbc39a168c99",
      "to": null,
      "contractAddress": "0xfa4c922f06aca171b9520ef147ea8fbc025a44d5"
    },
    {
      "status": "0x1",
      "cumulativeGasUsed": "0x1d0bc7d",
      "logs": [],
      "logsBloom": "0x00000000000000000000000000000000000000000000000000000000000000000000000000000000000000000000000000000000000000000000000000000000000000000000000000000000000000000000000000000000000000000000000000000000000000000000000000000000000000000000000000000000000000000000000000000000000000000000000000000000000000000000000000000000000000000000000000000000000000000000000000000000000000000000000000000000000000000000000000000000000000000000000000000000000000000000000000000000000000000000000000000000000000000000000000000000",
      "type": "0x2",
      "transactionHash": "0x3351a247b26fa63829710f8f1480076ee0195c9dcafc3cead46c497c6cdd08d7",
      "transactionIndex": "0xa6",
      "blockHash": "0xd59fbf99ff351052da63ed7128863deedef0286b31ebe0be5818d3c26c18c0f3",
      "blockNumber": "0x8041cb",
      "gasUsed": "0x752e",
      "effectiveGasPrice": "0x1546b1",
      "from": "0xd54b58f084bfdec0458254832cf4bbc39a168c99",
      "to": "0x02047c75ab5c3c3151281e2057ac458b16f3868e",
      "contractAddress": null
    },
    {
      "status": "0x1",
      "cumulativeGasUsed": "0x1d13a26",
      "logs": [],
      "logsBloom": "0x00000000000000000000000000000000000000000000000000000000000000000000000000000000000000000000000000000000000000000000000000000000000000000000000000000000000000000000000000000000000000000000000000000000000000000000000000000000000000000000000000000000000000000000000000000000000000000000000000000000000000000000000000000000000000000000000000000000000000000000000000000000000000000000000000000000000000000000000000000000000000000000000000000000000000000000000000000000000000000000000000000000000000000000000000000000",
      "type": "0x2",
      "transactionHash": "0xa0e306cc61668ec30673eb6d4d98fdb6d7d8a005b3efc4e2499688ac54d73f16",
      "transactionIndex": "0xa7",
      "blockHash": "0xd59fbf99ff351052da63ed7128863deedef0286b31ebe0be5818d3c26c18c0f3",
      "blockNumber": "0x8041cb",
      "gasUsed": "0x7da9",
      "effectiveGasPrice": "0x1546b1",
      "from": "0xd54b58f084bfdec0458254832cf4bbc39a168c99",
      "to": "0x02047c75ab5c3c3151281e2057ac458b16f3868e",
      "contractAddress": null
    }
  ],
  "libraries": [],
  "pending": [],
  "returns": {},
  "timestamp": 1748201820,
  "chain": 11155111,
  "commit": "34ed48d"
}