{
  "transactions": [
    {
      "hash": "0xd886c3b29149fa13d5f9b628a509c0dd01f85fbedb96093b7c273dc4ffa8445c",
      "transactionType": "CALL",
      "contractName": null,
      "contractAddress": "0x4bbe22c4d4fbc359da5b21c59a5c343643a21f2d",
      "function": "setFirstTime(uint256)",
      "arguments": [
        "910515890471654958140523710230010287858975992326"
      ],
      "transaction": {
        "from": "0xd54b58f084bfdec0458254832cf4bbc39a168c99",
        "to": "0x4bbe22c4d4fbc359da5b21c59a5c343643a21f2d",
        "gas": "0xa1d9",
        "value": "0x0",
        "input": "0xf1e026200000000000000000000000009f7cf1d1f558e57ef88a59ac3d47214ef25b6a06",
        "nonce": "0x14a",
        "chainId": "0xaa36a7"
      },
      "additionalContracts": [],
      "isFixedGasLimit": false
    },
    {
      "hash": "0xf367eaf6b5e647b2daea7b610bd2df9bcad7954e6cd725ac08f00d9f5e7c675f",
      "transactionType": "CALL",
      "contractName": null,
      "contractAddress": "0x4bbe22c4d4fbc359da5b21c59a5c343643a21f2d",
      "function": "setFirstTime(uint256)",
      "arguments": [
        "137122462167341575662000267002353578582749290296"
      ],
      "transaction": {
        "from": "0xd54b58f084bfdec0458254832cf4bbc39a168c99",
        "to": "0x4bbe22c4d4fbc359da5b21c59a5c343643a21f2d",
        "gas": "0x912d",
        "value": "0x0",
        "input": "0xf1e026200000000000000000000000001804c8ab1f12e6bbf3894d4083f33e07309d1f38",
        "nonce": "0x14b",
        "chainId": "0xaa36a7"
      },
      "additionalContracts": [],
      "isFixedGasLimit": false
    }
  ],
  "receipts": [
    {
      "status": "0x1",
      "cumulativeGasUsed": "0x14bd1d0",
      "logs": [],
      "logsBloom": "0x00000000000000000000000000000000000000000000000000000000000000000000000000000000000000000000000000000000000000000000000000000000000000000000000000000000000000000000000000000000000000000000000000000000000000000000000000000000000000000000000000000000000000000000000000000000000000000000000000000000000000000000000000000000000000000000000000000000000000000000000000000000000000000000000000000000000000000000000000000000000000000000000000000000000000000000000000000000000000000000000000000000000000000000000000000000",
      "type": "0x2",
      "transactionHash": "0xd886c3b29149fa13d5f9b628a509c0dd01f85fbedb96093b7c273dc4ffa8445c",
      "transactionIndex": "0xa9",
      "blockHash": "0x7d21b801eb7196762663ee4899cf217256ed625335004d960dd0ac9c526b00c1",
      "blockNumber": "0x804150",
      "gasUsed": "0x752e",
      "effectiveGasPrice": "0x2e695f",
      "from": "0xd54b58f084bfdec0458254832cf4bbc39a168c99",
      "to": "0x4bbe22c4d4fbc359da5b21c59a5c343643a21f2d",
      "contractAddress": null
    },
    {
      "status": "0x1",
      "cumulativeGasUsed": "0x14c3aec",
      "logs": [],
      "logsBloom": "0x00000000000000000000000000000000000000000000000000000000000000000000000000000000000000000000000000000000000000000000000000000000000000000000000000000000000000000000000000000000000000000000000000000000000000000000000000000000000000000000000000000000000000000000000000000000000000000000000000000000000000000000000000000000000000000000000000000000000000000000000000000000000000000000000000000000000000000000000000000000000000000000000000000000000000000000000000000000000000000000000000000000000000000000000000000000",
      "type": "0x2",
      "transactionHash": "0xf367eaf6b5e647b2daea7b610bd2df9bcad7954e6cd725ac08f00d9f5e7c675f",
      "transactionIndex": "0xaa",
      "blockHash": "0x7d21b801eb7196762663ee4899cf217256ed625335004d960dd0ac9c526b00c1",
      "blockNumber": "0x804150",
      "gasUsed": "0x691c",
      "effectiveGasPrice": "0x2e695f",
      "from": "0xd54b58f084bfdec0458254832cf4bbc39a168c99",
      "to": "0x4bbe22c4d4fbc359da5b21c59a5c343643a21f2d",
      "contractAddress": null
    }
  ],
  "libraries": [],
  "pending": [],
  "returns": {},
  "timestamp": 1748200332,
  "chain": 11155111,
  "commit": "34ed48d"
}