{
  "transactions": [
    {
      "hash": "0x2c6b233130ec755d3b0c09537638f6cffd5f53a600c6caeadfd67ea670cb8124",
      "transactionType": "CALL",
      "contractName": null,
      "contractAddress": "0x04e304f33e4f316b06f6e4c8db5ceaa5ed9a26bf",
      "function": "setFirstTime(uint256)",
      "arguments": [
        "517689086594599970315878223594074139123995472099"
      ],
      "transaction": {
        "from": "0xd54b58f084bfdec0458254832cf4bbc39a168c99",
        "to": "0x04e304f33e4f316b06f6e4c8db5ceaa5ed9a26bf",
        "gas": "0xa1d9",
        "value": "0x0",
        "input": "0xf1e026200000000000000000000000005aadfb43ef8daf45dd80f4676345b7676f1d70e3",
        "nonce": "0x13c",
        "chainId": "0xaa36a7"
      },
      "additionalContracts": [],
      "isFixedGasLimit": false
    },
    {
      "hash": "0x079aec0d0061b26ba6656a6393760b54bee75a2df26f2011d81843827de54828",
      "transactionType": "CALL",
      "contractName": null,
      "contractAddress": "0x04e304f33e4f316b06f6e4c8db5ceaa5ed9a26bf",
      "function": "setFirstTime(uint256)",
      "arguments": [
        "137122462167341575662000267002353578582749290296"
      ],
      "transaction": {
        "from": "0xd54b58f084bfdec0458254832cf4bbc39a168c99",
        "to": "0x04e304f33e4f316b06f6e4c8db5ceaa5ed9a26bf",
        "gas": "0x912d",
        "value": "0x0",
        "input": "0xf1e026200000000000000000000000001804c8ab1f12e6bbf3894d4083f33e07309d1f38",
        "nonce": "0x13d",
        "chainId": "0xaa36a7"
      },
      "additionalContracts": [],
      "isFixedGasLimit": false
    }
  ],
  "receipts": [
    {
      "status": "0x1",
      "cumulativeGasUsed": "0x124acf4",
      "logs": [],
      "logsBloom": "0x00000000000000000000000000000000000000000000000000000000000000000000000000000000000000000000000000000000000000000000000000000000000000000000000000000000000000000000000000000000000000000000000000000000000000000000000000000000000000000000000000000000000000000000000000000000000000000000000000000000000000000000000000000000000000000000000000000000000000000000000000000000000000000000000000000000000000000000000000000000000000000000000000000000000000000000000000000000000000000000000000000000000000000000000000000000",
      "type": "0x2",
      "transactionHash": "0x2c6b233130ec755d3b0c09537638f6cffd5f53a600c6caeadfd67ea670cb8124",
      "transactionIndex": "0x8e",
      "blockHash": "0xbdc1be33d100e8b4fc015c09acd8cf9c03442545f9241b0b2de5dbb7ba2863a1",
      "blockNumber": "0x8040e6",
      "gasUsed": "0x752e",
      "effectiveGasPrice": "0x5ee5cf",
      "from": "0xd54b58f084bfdec0458254832cf4bbc39a168c99",
      "to": "0x04e304f33e4f316b06f6e4c8db5ceaa5ed9a26bf",
      "contractAddress": null
    },
    {
      "status": "0x1",
      "cumulativeGasUsed": "0x1251610",
      "logs": [],
      "logsBloom": "0x00000000000000000000000000000000000000000000000000000000000000000000000000000000000000000000000000000000000000000000000000000000000000000000000000000000000000000000000000000000000000000000000000000000000000000000000000000000000000000000000000000000000000000000000000000000000000000000000000000000000000000000000000000000000000000000000000000000000000000000000000000000000000000000000000000000000000000000000000000000000000000000000000000000000000000000000000000000000000000000000000000000000000000000000000000000",
      "type": "0x2",
      "transactionHash": "0x079aec0d0061b26ba6656a6393760b54bee75a2df26f2011d81843827de54828",
      "transactionIndex": "0x8f",
      "blockHash": "0xbdc1be33d100e8b4fc015c09acd8cf9c03442545f9241b0b2de5dbb7ba2863a1",
      "blockNumber": "0x8040e6",
      "gasUsed": "0x691c",
      "effectiveGasPrice": "0x5ee5cf",
      "from": "0xd54b58f084bfdec0458254832cf4bbc39a168c99",
      "to": "0x04e304f33e4f316b06f6e4c8db5ceaa5ed9a26bf",
      "contractAddress": null
    }
  ],
  "libraries": [],
  "pending": [],
  "returns": {},
  "timestamp": 1748199060,
  "chain": 11155111,
  "commit": "34ed48d"
}