{
  "transactions": [
    {
      "hash": "0x22f4d6555d0ee1577fdd4f439136cfb1540d9670c5170783c43f2a9351622769",
      "transactionType": "CALL",
      "contractName": null,
      "contractAddress": "0x04e304f33e4f316b06f6e4c8db5ceaa5ed9a26bf",
      "function": "setFirstTime(uint256)",
      "arguments": [
        "517689086594599970315878223594074139123995472099"
      ],
      "transaction": {
        "from": "0xd54b58f084bfdec0458254832cf4bbc39a168c99",
        "to": "0x04e304f33e4f316b06f6e4c8db5ceaa5ed9a26bf",
        "gas": "0x912d",
        "value": "0x0",
        "input": "0xf1e026200000000000000000000000005aadfb43ef8daf45dd80f4676345b7676f1d70e3",
        "nonce": "0x140",
        "chainId": "0xaa36a7"
      },
      "additionalContracts": [],
      "isFixedGasLimit": false
    },
    {
      "hash": "0xa6ee85c2e1e6137817e2ce641b53554237419b4818efae8ab4518fa9eee4345c",
      "transactionType": "CALL",
      "contractName": null,
      "contractAddress": "0x04e304f33e4f316b06f6e4c8db5ceaa5ed9a26bf",
      "function": "setFirstTime(uint256)",
      "arguments": [
        "137122462167341575662000267002353578582749290296"
      ],
      "transaction": {
        "from": "0xd54b58f084bfdec0458254832cf4bbc39a168c99",
        "to": "0x04e304f33e4f316b06f6e4c8db5ceaa5ed9a26bf",
        "gas": "0x912d",
        "value": "0x0",
        "input": "0xf1e026200000000000000000000000001804c8ab1f12e6bbf3894d4083f33e07309d1f38",
        "nonce": "0x141",
        "chainId": "0xaa36a7"
      },
      "additionalContracts": [],
      "isFixedGasLimit": false
    }
  ],
  "receipts": [
    {
      "status": "0x1",
      "cumulativeGasUsed": "0x139248c",
      "logs": [],
      "logsBloom": "0x00000000000000000000000000000000000000000000000000000000000000000000000000000000000000000000000000000000000000000000000000000000000000000000000000000000000000000000000000000000000000000000000000000000000000000000000000000000000000000000000000000000000000000000000000000000000000000000000000000000000000000000000000000000000000000000000000000000000000000000000000000000000000000000000000000000000000000000000000000000000000000000000000000000000000000000000000000000000000000000000000000000000000000000000000000000",
      "type": "0x2",
      "transactionHash": "0x22f4d6555d0ee1577fdd4f439136cfb1540d9670c5170783c43f2a9351622769",
      "transactionIndex": "0x9e",
      "blockHash": "0x6fef2d8c7e5ab623b6d0f70b4f4e1b50e8d66b5b28e7e9f8139fbd66fdb8aa48",
      "blockNumber": "0x8040ff",
      "gasUsed": "0x691c",
      "effectiveGasPrice": "0x46eeed",
      "from": "0xd54b58f084bfdec0458254832cf4bbc39a168c99",
      "to": "0x04e304f33e4f316b06f6e4c8db5ceaa5ed9a26bf",
      "contractAddress": null
    },
    {
      "status": "0x1",
      "cumulativeGasUsed": "0x1398da8",
      "logs": [],
      "logsBloom": "0x00000000000000000000000000000000000000000000000000000000000000000000000000000000000000000000000000000000000000000000000000000000000000000000000000000000000000000000000000000000000000000000000000000000000000000000000000000000000000000000000000000000000000000000000000000000000000000000000000000000000000000000000000000000000000000000000000000000000000000000000000000000000000000000000000000000000000000000000000000000000000000000000000000000000000000000000000000000000000000000000000000000000000000000000000000000",
      "type": "0x2",
      "transactionHash": "0xa6ee85c2e1e6137817e2ce641b53554237419b4818efae8ab4518fa9eee4345c",
      "transactionIndex": "0x9f",
      "blockHash": "0x6fef2d8c7e5ab623b6d0f70b4f4e1b50e8d66b5b28e7e9f8139fbd66fdb8aa48",
      "blockNumber": "0x8040ff",
      "gasUsed": "0x691c",
      "effectiveGasPrice": "0x46eeed",
      "from": "0xd54b58f084bfdec0458254832cf4bbc39a168c99",
      "to": "0x04e304f33e4f316b06f6e4c8db5ceaa5ed9a26bf",
      "contractAddress": null
    }
  ],
  "libraries": [],
  "pending": [],
  "returns": {},
  "timestamp": 1748199360,
  "chain": 11155111,
  "commit": "34ed48d"
}