{
  "transactions": [
    {
      "hash": "0xe90ad5ef31bc66609630aad09970cca7ab316a908269293f9c57c6fe82c1199f",
      "transactionType": "CALL",
      "contractName": null,
      "contractAddress": "0x616b4cbd0af7b4575eb23f1f7a9b49c173829f63",
      "function": "setFirstTime(uint256)",
      "arguments": [
        "517689086594599970315878223594074139123995472099"
      ],
      "transaction": {
        "from": "0xd54b58f084bfdec0458254832cf4bbc39a168c99",
        "to": "0x616b4cbd0af7b4575eb23f1f7a9b49c173829f63",
        "gas": "0xa1d9",
        "value": "0x0",
        "input": "0xf1e026200000000000000000000000005aadfb43ef8daf45dd80f4676345b7676f1d70e3",
        "nonce": "0x147",
        "chainId": "0xaa36a7"
      },
      "additionalContracts": [],
      "isFixedGasLimit": false
    },
    {
      "hash": "0x5de2c81ff5e47932573367f82627541e39677f74cb17b482f3898d589a012a8d",
      "transactionType": "CALL",
      "contractName": null,
      "contractAddress": "0x616b4cbd0af7b4575eb23f1f7a9b49c173829f63",
      "function": "setFirstTime(uint256)",
      "arguments": [
        "1217695337800752013396051244797189447537432890521"
      ],
      "transaction": {
        "from": "0xd54b58f084bfdec0458254832cf4bbc39a168c99",
        "to": "0x616b4cbd0af7b4575eb23f1f7a9b49c173829f63",
        "gas": "0x912d",
        "value": "0x0",
        "input": "0xf1e02620000000000000000000000000d54b58f084bfdec0458254832cf4bbc39a168c99",
        "nonce": "0x148",
        "chainId": "0xaa36a7"
      },
      "additionalContracts": [],
      "isFixedGasLimit": false
    }
  ],
  "receipts": [
    {
      "status": "0x1",
      "cumulativeGasUsed": "0x15e3982",
      "logs": [],
      "logsBloom": "0x00000000000000000000000000000000000000000000000000000000000000000000000000000000000000000000000000000000000000000000000000000000000000000000000000000000000000000000000000000000000000000000000000000000000000000000000000000000000000000000000000000000000000000000000000000000000000000000000000000000000000000000000000000000000000000000000000000000000000000000000000000000000000000000000000000000000000000000000000000000000000000000000000000000000000000000000000000000000000000000000000000000000000000000000000000000",
      "type": "0x2",
      "transactionHash": "0xe90ad5ef31bc66609630aad09970cca7ab316a908269293f9c57c6fe82c1199f",
      "transactionIndex": "0x9f",
      "blockHash": "0xd7e50d42077f211441438b991758f4d3f292f7b3741b15f83c0c58a0496e2334",
      "blockNumber": "0x804136",
      "gasUsed": "0x752e",
      "effectiveGasPrice": "0xcb608a",
      "from": "0xd54b58f084bfdec0458254832cf4bbc39a168c99",
      "to": "0x616b4cbd0af7b4575eb23f1f7a9b49c173829f63",
      "contractAddress": null
    },
    {
      "status": "0x1",
      "cumulativeGasUsed": "0x15ea29e",
      "logs": [],
      "logsBloom": "0x00000000000000000000000000000000000000000000000000000000000000000000000000000000000000000000000000000000000000000000000000000000000000000000000000000000000000000000000000000000000000000000000000000000000000000000000000000000000000000000000000000000000000000000000000000000000000000000000000000000000000000000000000000000000000000000000000000000000000000000000000000000000000000000000000000000000000000000000000000000000000000000000000000000000000000000000000000000000000000000000000000000000000000000000000000000",
      "type": "0x2",
      "transactionHash": "0x5de2c81ff5e47932573367f82627541e39677f74cb17b482f3898d589a012a8d",
      "transactionIndex": "0xa0",
      "blockHash": "0xd7e50d42077f211441438b991758f4d3f292f7b3741b15f83c0c58a0496e2334",
      "blockNumber": "0x804136",
      "gasUsed": "0x691c",
      "effectiveGasPrice": "0xcb608a",
      "from": "0xd54b58f084bfdec0458254832cf4bbc39a168c99",
      "to": "0x616b4cbd0af7b4575eb23f1f7a9b49c173829f63",
      "contractAddress": null
    }
  ],
  "libraries": [],
  "pending": [],
  "returns": {},
  "timestamp": 1748200021,
  "chain": 11155111,
  "commit": "34ed48d"
}