{
  "transactions": [
    {
      "hash": "0xef64d7ccb26cc3f0b46881f3856457a3d44b639781bbb9a18d029a4a6fd3ea7d",
      "transactionType": "CALL",
      "contractName": null,
      "contractAddress": "0xdeddc1c24c8fc9301eb631713d5d1c4930a502fd",
      "function": "setFirstTime(uint256)",
      "arguments": [
        "910515890471654958140523710230010287858975992326"
      ],
      "transaction": {
        "from": "0xd54b58f084bfdec0458254832cf4bbc39a168c99",
        "to": "0xdeddc1c24c8fc9301eb631713d5d1c4930a502fd",
        "gas": "0x912d",
        "value": "0x0",
        "input": "0xf1e026200000000000000000000000009f7cf1d1f558e57ef88a59ac3d47214ef25b6a06",
        "nonce": "0x155",
        "chainId": "0xaa36a7"
      },
      "additionalContracts": [],
      "isFixedGasLimit": false
    },
    {
      "hash": "0x9d813e756dfccebe2de050d77fb9429a75ab0987c84703ff4eee8bfe95c37f0e",
      "transactionType": "CALL",
      "contractName": null,
      "contractAddress": "0xdeddc1c24c8fc9301eb631713d5d1c4930a502fd",
      "function": "setFirstTime(uint256)",
      "arguments": [
        "1217695337800752013396051244797189447537432890521"
      ],
      "transaction": {
        "from": "0xd54b58f084bfdec0458254832cf4bbc39a168c99",
        "to": "0xdeddc1c24c8fc9301eb631713d5d1c4930a502fd",
        "gas": "0x912d",
        "value": "0x0",
        "input": "0xf1e02620000000000000000000000000d54b58f084bfdec0458254832cf4bbc39a168c99",
        "nonce": "0x156",
        "chainId": "0xaa36a7"
      },
      "additionalContracts": [],
      "isFixedGasLimit": false
    }
  ],
  "receipts": [
    {
      "status": "0x1",
      "cumulativeGasUsed": "0xfe7e35",
      "logs": [],
      "logsBloom": "0x00000000000000000000000000000000000000000000000000000000000000000000000000000000000000000000000000000000000000000000000000000000000000000000000000000000000000000000000000000000000000000000000000000000000000000000000000000000000000000000000000000000000000000000000000000000000000000000000000000000000000000000000000000000000000000000000000000000000000000000000000000000000000000000000000000000000000000000000000000000000000000000000000000000000000000000000000000000000000000000000000000000000000000000000000000000",
      "type": "0x2",
      "transactionHash": "0xef64d7ccb26cc3f0b46881f3856457a3d44b639781bbb9a18d029a4a6fd3ea7d",
      "transactionIndex": "0x83",
      "blockHash": "0x375b50efc05f946c3dc7d27a38d89207fd7c9e3c8714beab1782820b3cd390de",
      "blockNumber": "0x804199",
      "gasUsed": "0x691c",
      "effectiveGasPrice": "0x2a5191",
      "from": "0xd54b58f084bfdec0458254832cf4bbc39a168c99",
      "to": "0xdeddc1c24c8fc9301eb631713d5d1c4930a502fd",
      "contractAddress": null
    },
    {
      "status": "0x1",
      "cumulativeGasUsed": "0xfee751",
      "logs": [],
      "logsBloom": "0x00000000000000000000000000000000000000000000000000000000000000000000000000000000000000000000000000000000000000000000000000000000000000000000000000000000000000000000000000000000000000000000000000000000000000000000000000000000000000000000000000000000000000000000000000000000000000000000000000000000000000000000000000000000000000000000000000000000000000000000000000000000000000000000000000000000000000000000000000000000000000000000000000000000000000000000000000000000000000000000000000000000000000000000000000000000",
      "type": "0x2",
      "transactionHash": "0x9d813e756dfccebe2de050d77fb9429a75ab0987c84703ff4eee8bfe95c37f0e",
      "transactionIndex": "0x84",
      "blockHash": "0x375b50efc05f946c3dc7d27a38d89207fd7c9e3c8714beab1782820b3cd390de",
      "blockNumber": "0x804199",
      "gasUsed": "0x691c",
      "effectiveGasPrice": "0x2a5191",
      "from": "0xd54b58f084bfdec0458254832cf4bbc39a168c99",
      "to": "0xdeddc1c24c8fc9301eb631713d5d1c4930a502fd",
      "contractAddress": null
    }
  ],
  "libraries": [],
  "pending": [],
  "returns": {},
  "timestamp": 1748201222,
  "chain": 11155111,
  "commit": "34ed48d"
}