{
  "transactions": [
    {
      "hash": "0xbf2c3f5cb99302660908ac370f05e78f2ef171a147aa1946c60d1b2bf2e46574",
      "transactionType": "CALL",
      "contractName": null,
      "contractAddress": "0x0e34ba1ca65eb22cee9de9d468aff2cd88844655",
      "function": "unlock(bytes16)",
      "arguments": [
        "0xc611fb1573ee65487373d340aafc89ea"
      ],
      "transaction": {
        "from": "0xd54b58f084bfdec0458254832cf4bbc39a168c99",
        "to": "0x0e34ba1ca65eb22cee9de9d468aff2cd88844655",
        "gas": "0x8940",
        "value": "0x0",
        "input": "0xe1afb08cc611fb1573ee65487373d340aafc89ea00000000000000000000000000000000",
        "nonce": "0x11a",
        "chainId": "0xaa36a7"
      },
      "additionalContracts": [],
      "isFixedGasLimit": false
    }
  ],
  "receipts": [
    {
      "status": "0x1",
      "cumulativeGasUsed": "0x17e8065",
      "logs": [],
      "logsBloom": "0x00000000000000000000000000000000000000000000000000000000000000000000000000000000000000000000000000000000000000000000000000000000000000000000000000000000000000000000000000000000000000000000000000000000000000000000000000000000000000000000000000000000000000000000000000000000000000000000000000000000000000000000000000000000000000000000000000000000000000000000000000000000000000000000000000000000000000000000000000000000000000000000000000000000000000000000000000000000000000000000000000000000000000000000000000000000",
      "type": "0x2",
      "transactionHash": "0xbf2c3f5cb99302660908ac370f05e78f2ef171a147aa1946c60d1b2bf2e46574",
      "transactionIndex": "0x88",
      "blockHash": "0x1d073e3f73f70a519ef8f10c48890ec9f3e9fd8f2677c09603be748628101684",
      "blockNumber": "0x80399f",
      "gasUsed": "0x5dd9",
      "effectiveGasPrice": "0xf7848",
      "from": "0xd54b58f084bfdec0458254832cf4bbc39a168c99",
      "to": "0x0e34ba1ca65eb22cee9de9d468aff2cd88844655",
      "contractAddress": null
    }
  ],
  "libraries": [],
  "pending": [],
  "returns": {},
  "timestamp": 1748176093,
  "chain": 11155111,
  "commit": "34ed48d"
}