{
  "transactions": [
    {
      "hash": "0x062f71f2607227cbffd5c3d7d6883b6cc87197b8f121824e7d691a66f0b0310e",
      "transactionType": "CALL",
      "contractName": null,
      "contractAddress": "0x0e34ba1ca65eb22cee9de9d468aff2cd88844655",
      "function": "unlock(bytes16)",
      "arguments": [
        "0xc611fb1573ee65487373d340aafc89ea"
      ],
      "transaction": {
        "from": "0xd54b58f084bfdec0458254832cf4bbc39a168c99",
        "to": "0x0e34ba1ca65eb22cee9de9d468aff2cd88844655",
        "gas": "0x94ad",
        "value": "0x0",
        "input": "0xe1afb08cc611fb1573ee65487373d340aafc89ea00000000000000000000000000000000",
        "nonce": "0x11d",
        "chainId": "0xaa36a7"
      },
      "additionalContracts": [],
      "isFixedGasLimit": false
    }
  ],
  "receipts": [],
  "libraries": [],
  "pending": [
    "0x062f71f2607227cbffd5c3d7d6883b6cc87197b8f121824e7d691a66f0b0310e"
  ],
  "returns": {},
  "timestamp": 1748178877,
  "chain": 11155111,
  "commit": "34ed48d"
}