{
  "transactions": [
    {
      "hash": null,
      "transactionType": "CALL",
      "contractName": null,
      "contractAddress": "0x0e34ba1ca65eb22cee9de9d468aff2cd88844655",
      "function": "unlock(bytes16)",
      "arguments": [
        "0xc611fb1573ee65487373d340aafc89ea"
      ],
      "transaction": {
        "from": "0x1804c8ab1f12e6bbf3894d4083f33e07309d1f38",
        "to": "0x0e34ba1ca65eb22cee9de9d468aff2cd88844655",
        "gas": "0x8940",
        "value": "0x0",
        "input": "0xe1afb08cc611fb1573ee65487373d340aafc89ea00000000000000000000000000000000",
        "nonce": "0x0",
        "chainId": "0xaa36a7"
      },
      "additionalContracts": [],
      "isFixedGasLimit": false
    }
  ],
  "receipts": [],
  "libraries": [],
  "pending": [],
  "returns": {},
  "timestamp": 1748176041,
  "chain": 11155111,
  "commit": "34ed48d"
}